:020000040800F2
:1000000050090020AD01000823370008DD2C00084E
:10001000213700084F090008493E00080000000091
:10002000000000000000000000000000713800081F
:100030005109000800000000253700087338000847
:10004000C7010008C7010008C7010008C701000870
:10005000C7010008C7010008C7010008C701000860
:10006000C7010008C7010008C7010008C701000850
:10007000C7010008C7010008C7010008C701000840
:10008000C7010008C7010008C70100080000000000
:10009000000000000000000000000000C701000890
:1000A000C7010008C7010008C7010008C701000810
:1000B000C7010008C701000815390008C70100087A
:1000C000C7010008C7010008C7010008C7010008F0
:1000D000C7010008C7010008C701000800000000B0
:1000E000C7010008C7010008C701000800000000A0
:1000F000000000000000000000000000C701000830
:1001000000000000C7010008C7010008C70100087F
:1001100000000000000000000000000000000000DF
:10012000C7010008C7010008C7010008C70100088F
:10013000C7010008000000000000000000000000EF
:10014000000000000000000000000000C7010008DF
:10015000C7010008C7010008C7010008C70100085F
:10016000C7010008C70100080000000000000000EF
:10017000000000000000000000000000000000007F
:1001800000000000C701000800000000000000009F
:10019000C7010008C7010008DFF80CD000F0B8FB69
:1001A00000480047694F0008500900200648804772
:1001B00006480047FEE7FEE7FEE7FEE7FEE7FEE74C
:1001C000FEE7FEE7FEE7FEE7F938000899010008C0
:1001D0002DE9F05F0546002092469B46884606467C
:1001E000814640241BE0284641464746224600F00F
:1001F00088FA53465A46C01A914110D31146184600
:10020000224600F06FFA2D1A67EB01084F4622468E
:100210000120002100F066FA17EB00094E41201E74
:10022000A4F10104DFDC484631462A464346BDE8D6
:10023000F09FD2B201E000F8012B491EFBD27047BB
:100240000022F6E710B513460A4604461946FFF7A2
:10025000F0FF204610BD2DE9FE4F804681EA0300E5
:10026000C00F0C46009021F0004123F00045B8EB90
:100270000200A94105D24046214690461C460B4645
:10028000024623F00040104347D0270DC7F30A0071
:10029000C3F30A510290401A019040286BDAC3F36D
:1002A000130040F4801B0098924620B10023D2EB4B
:1002B000030A63EB0B0B01985946C0F1400250460C
:1002C00000F010FA06460D4650465946019A00F0D5
:1002D00028FA10EB08006141002487EA115284EAF1
:1002E000E7731A4340D0009A62B3019A012A4FEA99
:1002F000075215DC001B61EB02014FF0004202EADD
:100300000752CDE90042001C41F5801132462B46D0
:1003100000F05FFA03B0BDE8F08F40462146F9E7F0
:10032000001B61EB0201001C41F5801300185B41CA
:100330002018A2F5001747EB030140EAD570B61963
:100340006D4111E06D084FEA360645EAC0754FEA87
:100350000752001B61EB0201001C41F580114908A6
:100360004FEA30000019514132462B4603B0BDE838
:10037000F04F00F01FBA0098012240000023D0EB9C
:10038000020263EBE073009821464FEAE074B8EB99
:10039000000061EB0401E9E783F000435BE781F0D3
:1003A000004158E72DE9FE4F81EA030404F00044C0
:1003B00021F0004100944FF0000B23F0004350EA7D
:1003C00001045ED052EA03045BD0C3F30A54C1F3C4
:1003D0000A552C44A4F2F3340194A0FB0254C1F357
:1003E000130141F48011C3F3130343F4801301FBA1
:1003F000024400FB034E840A970A44EA815447EA08
:100400008357A4FB076802958D0A05FB07854FEA11
:10041000932C04FB0C542705029D4FEA065847EA2B
:100420001637B5EB08056EEB070C870E920E47EA00
:10043000811742EA8312A7FB0201B6EB0B0164EBC2
:1004400000042B0D43EA0C335E1844EB1C50DA46D3
:100450005146E7FB0201C5F313044FEA0B3343EAAD
:1004600014534FEA0432019C43EA0603A4F10C043E
:100470000294009CCDE900B400F0ABF903B0BDE8F4
:10048000F08F00200146F9E72DE9F04D81EA0304E1
:1004900004F0004B21F0004514464FF0000A23F011
:1004A000004150EA050220D054EA01021DD0C5F3F4
:1004B0000A570246C5F31303C1F31300C1F30A56EA
:1004C00040F4801543F48013A7EB0608101BD646B2
:1004D00008F2FD3873EB050002D308F1010801E0D2
:1004E00092185B41B8F1000F03DA00200146BDE825
:1004F000F08D00204FF48011064684460EE0171B55
:1005000073EB050705D3121B63EB050306434CEAA7
:10051000010C49084FEA300092185B4150EA01078C
:10052000EDD152EA030012D082EA040083EA050109
:10053000084305D0101BAB4106D20122002306E080
:1005400000224FF0004302E06FF0010253101AEB5B
:1005500006004CEB085110EB0A0041EB0B01BDE823
:10056000F04D00F027B90EB5C10F80EAE0700844E5
:10057000CA07002140F233438DE80E000A460B46BD
:1005800000F027F903B000BD70B5C1F30A5201F0C5
:1005900000450024C1F3130140F2FF3341F4801100
:1005A0009A4201DA002070BD40F233439A42A2F22F
:1005B000334203DC524200F0A4F800E090402C43A8
:1005C000F1D0404270BDC1F30A5210B5C1F313011E
:1005D00040F2FF3341F480119A4201DA002010BD4D
:1005E00040F233439A42A2F2334203DC524200F01B
:1005F00088F810BD904010BD00F0004230F000407F
:100600000AD0C10D01F56071C0F3160042EA015134
:10061000C2084007114370470020014670470000A0
:1006200030B5041E71F1000404DB4FF00044404279
:1006300064EB0101141E73F1000405DB1C464FF04E
:100640000043524263EB04038B4208BF824230BD39
:1006500030B5041E71F1000404DB4FF00044404249
:1006600064EB0101141E73F1000405DB1C464FF01E
:100670000043524263EB0403994208BF904230BDED
:1006800001F0004330B421F0004150EA010206D0ED
:100690000A0DA2F56072C1F31301002A02DC30BC1E
:1006A00000207047440F44EAC104C100E01830BC88
:1006B00000EBC25000F047B830B50B4601460020B1
:1006C0002022012409E021FA02F59D4205D303FA14
:1006D00002F5491B04FA02F52844151EA2F1010295
:1006E000F1DC30BD202A04DB203A00FA02F10020C0
:1006F00070479140C2F1200320FA03F31943904060
:100700007047202A04DB203A21FA02F000217047CA
:1007100021FA02F3D040C2F1200291400843194669
:100720007047202A06DBCB17203A41FA02F043EA51
:10073000E07306E041FA02F3D040C2F1200291409A
:100740000843194670470029A8BF7047401C49005C
:1007500008BF20F00100704710B4B0FA80FC00FA26
:100760000CF050EA010404BF10BC704749B1CCF151
:10077000200421FA04F411FA0CF118BF01212143DD
:100780000843A3EB0C01CB1D4FEA00614FEA102098
:1007900042BF002010BC704700EBC350104400293A
:1007A000A4BF10BC7047401C490008BF20F00100E6
:1007B00010BC704710B5141E73F1000408DA401C19
:1007C00041F1000192185B411A4301D120F0010070
:1007D00010BD2DE9F04D92469B4611B1B1FA81F260
:1007E00002E0B0FA80F220329046FFF77BFF044629
:1007F0000F4640EA0A0041EA0B0153465A460843B5
:1008000013D0114653EA010019D0C8F140025046F6
:10081000FFF777FF05460E46504659464246FFF71A
:1008200061FF084305D0012004E020463946BDE8B9
:10083000F08D0020054346EAE0762C4337430A98C2
:100840006305E40AA0EB08000022FD0A44EA4754CD
:100850000A3002D500200146E9E701051019694177
:10086000DDE9084500196941BDE8F04DA2E72DE931
:10087000F04D00231A461B1A8A4103DB0020014673
:10088000BDE8F08DC1F30A52C1F3130141F48015A4
:100890004FF0000BD10702D100186D41521E002706
:1008A000044640F2FF11384601EB620A3E4680469C
:1008B000024600204FF48011FFF723FFC219714157
:1008C000BB1846EB0100B4EB030C75EB000C04D332
:1008D000E41A65EB000517460E46241908F10100DD
:1008E0006D4180463428E3DDF91946EB0600091B0B
:1008F000A84103D24FF0FF32134601E00022134615
:100900001BEB070046EB0A51BDE8F04DFFF752BF65
:10091000064C074D06E0E06840F0010394E807004C
:1009200098471034AC42F6D3FFF73AFC1055000854
:10093000305500080EB540F2334102910021CDE957
:1009400000110A460B46FFF744FF03B000BDFEE767
:100950007047704770B5044600F0DEF80546601C2D
:1009600002D004480078044400F0D6F8401BA042AE
:10097000FAD370BDDC0000202DE9F84F00224FF0C3
:10098000010803254FF00F0E0B6808FA02F423400C
:10099000A34271D14E68012E05D0022E03D0112E34
:1009A00001D0122E15D18668570005FA07FC26EAF9
:1009B0000C06D1F80CC00CFA07FC4CEA060CC0F887
:1009C00008C04668A6430C79C4F30014944034432D
:1009D0004460C668570005FA07FC8C6826EA0C06D6
:1009E000BC403443C4604C68022C01D0122C13D19B
:1009F000D40800EB8404A346D4F8209054074FEAAF
:100A0000D46A0EFA0AF629EA06090E6906FA0AF607
:100A100046EA0906CBF8206004680E7924EA0C0443
:100A200006F00306BE40264306604C68E40056D537
:100A30002E4C266846F480462660246822F0030681
:100A400004F4804400942A4C3444A446D4F8084862
:100A50009607370F0EFA07F6B443264EB04201D17F
:100A6000002615E0244EB04201D1012610E0234EAD
:100A7000B04202D102260BE031E0214EB04201D15A
:100A8000032605E01F4EB04201D1042600E00726F0
:100A9000BE402643CCF808681B4E34684F689C4320
:100AA000FF0300D51C433460174E361D34684F6871
:100AB0009C43BF0300D51C433460134E0836346892
:100AC0004F689C43FF0200D51C4334600E4E0C3629
:100AD00034684F689C43BF0200D51C433460521CED
:100AE000102AFFF451AFBDE8F88F000044380240EF
:100AF00000300140000002400004024000080240B3
:100B0000000C024000100240003C01400AB181612B
:100B100070470904FBE70000014880687047000047
:100B2000DC00002070B5040025D094F83D000025BD
:100B300020B984F83C50204600F0F4FA242084F8D0
:100B40003D002068016821F0010101602068016812
:100B500041F4004101602068016821F40041016016
:100B600000F04AFC4D4A6168914201D84C4900E0CE
:100B70004C49884201D2012070BD4B492368B0FB2B
:100B8000F1F15E6826F03F060E435E6063689342B3
:100B900006D94FF4967359434FF47A73B1FBF3F1CE
:100BA0002368491C1E6A26F03F06314319626168BA
:100BB000914210D84900401EB0FBF1F2521CC2F322
:100BC0000B02042A01D2042022E0B0FBF1F0401C09
:100BD000C0F30B001CE0A268F2B301EBC10303EB0E
:100BE0000116431EB3FBF6F35B1C43F480431B0565
:100BF00049D092B301EBC10202EB0111401EB0FBE0
:100C0000F1F0401CC0F30B0040F4804040F4004081
:100C10002168CA694CF6FF739A431043C861D4E94E
:100C2000071001432068026822F0C00211430160EE
:100C3000D4E9030101432068826848F2FF339A43F4
:100C400011438160D4E9050108432168CA6822F094
:100C5000FF021043C86001E00EE016E02068016862
:100C600041F0010101602564202084F83D002563E6
:100C700084F83E50002070BD01EB4106431EB3FBDB
:100C8000F6F35B1CB3E70120C2E701EB4101401E14
:100C9000B0FBF1F0401CC0F30B00B7E7A0860100E9
:100CA00080841E0000093D0040420F002DE9FF4FE7
:100CB00081B089460446FFF72FFF054694F83D00B2
:100CC0004FF0010820287DD11923012250492046E8
:100CD000009502F005F9002874D194F83C00012831
:100CE00070D0012084F83C0020680168C90703D156
:100CF000016841F0010101602068016821F4006190
:100D00000160242084F83D00002626644148E0620A
:100D10004FF0011B20272068016841F480710160B9
:100D20000095002259462046049B02F0D9F850B1A4
:100D300020680068C00502D54FF4007020640320CD
:100D400005B0BDE8F08F216809F0FE000861FFF7EB
:100D5000E3FE2168054648694969C0F34000C1F3D4
:100D600080214FF0A00A0FE0FFF7D6FE411B049848
:100D7000814200D808B984F83DA0216848694969D2
:100D8000C0F34000C1F3802194F83D20A02A02D096
:100D900008B90029E8D084F83D7020684169C9434A
:100DA000890716D4016841F4007101602068416927
:100DB00080691923012216492046009502F090F817
:100DC000B8B900E021E084F83D7084F83C60002070
:100DD000B6E7016841F40071016021686FF480603A
:100DE0004861192301220A492046009502F078F84B
:100DF00008B10120A4E7039808F1010880458AD3CF
:100E000084F83D7084F83C60F3E7022098E7000026
:100E1000020010000000FFFF2DE9F84F1F4690462A
:100E20008A460446DDF82890FFF776FE054694F8DA
:100E30003D00202875D1192301226C4920460095D8
:100E400002F04EF80028F5D194F83C00012868D053
:100E5000012084F83C0020680168C90703D10168BB
:100E600041F0010101602068016821F40061016026
:100E7000222084F83D00102084F83E0000262664DD
:100E8000C4F824806785608D20855948E0622B4630
:100E90004A465146204601F039FF002878D1208D7E
:100EA000544F68B1012814D002282068016816D078
:100EB00041F480610160206841698069009087E0A9
:100EC0002068416981690091016841F40071016005
:100ED0007EE02068016821F480610160F0E721F480
:100EE000806101602068016841F40061E2E7032845
:100EF00048D801280AD0022814D04B46002239468F
:100F00002046009501F0ECFFD8BB27E02A46494671
:100F1000204602F064F8A0BB20680069616A08708E
:100F20004DE061E04B46002239462046009501F035
:100F3000D7FF30BB2068016841F400710160206870
:100F40000069616A0870606A401C6062218D491EF8
:100F50002185618D491E618521682EE02068016828
:100F600021F48061016020680069616A0870606A2C
:100F7000401C6062208D401E2085608D401E608573
:100F8000D0E705E02A464946204602F028F810B18D
:100F90000120BDE8F88F20680069616A0870606A06
:100FA000401C6062218D491E2185618D491E61852D
:100FB00021684A69D24352070AD409690170606AFC
:100FC000401C6062208D401E2085608D401E608523
:100FD000208D00288BD1202084F83D0084F83E60CD
:100FE00084F83C600020D4E70220D2E70200100021
:100FF0000000FFFF040001002DE9F84F1F46904656
:101000008A460446DDF82890FFF786FD054694F8E9
:101010003D0020287FD11923012240492046009518
:1010200001F05EFF002876D194F83C00012872D0D0
:10103000012084F83C0020680168C90703D10168D9
:1010400041F0010101602068016821F40061016044
:10105000212084F83D00102084F83E0000262664FC
:10106000C4F824806785608D20852D48E0622B467A
:101070004A465146204601F0BFFE90B920684169BA
:101080008069009036E02A464946204601F0DAFFA2
:1010900050B1206C042804D12068016841F400712B
:1010A00001600120BDE8F88F606A2168007808615E
:1010B000606A401C6062618D491E6185218D491EF8
:1010C00089B2218522685369DB435B070BD451B198
:1010D00000781061606A401C6062608D401E60850F
:1010E000208D401E20852A464946204601F0D2FE2A
:1010F0000028CED1208D0028C5D154F83D0B0168C1
:1011000041F400710160202004F81E09E67766773B
:101110000020C7E7FFE70220C4E70000020010003C
:101120000000FFFF10B586B0044614216846FFF7A3
:1011300087F814492068884221D11348016841F09A
:10114000020101600068694600F0020005904FF45A
:101150001070009012200190012002900320039053
:10116000042004900948FFF707FC07481030016885
:1011700041F400110160006800F40010059006B011
:1011800010BD00000054004030380240000402400E
:10119000024881680278114481607047DC000020B9
:1011A0000B4810B5016841F400710160016841F419
:1011B00080610160016841F480710160032000F0EA
:1011C0006FF8002000F006F800F024F8002010BDB1
:1011D000003C024070B50D4D04464FF47A712878FA
:1011E000B1FBF0F00A490968B1FBF0F000F0BDFD79
:1011F00048B9102C07D200222146501E00F030F8CA
:1012000000206C6070BD012070BD0000DC0000207B
:10121000E80000200A4808B5016841F480410160F7
:10122000006800F4804000900548001F016841F00C
:1012300080510160006800F08050009008BD0000FF
:1012400044380240002809DB00F01F0201219140D0
:101250004009800000F1E020C0F800117047000054
:10126000F0B40E4B1B680C46C3F30223C3F1070511
:10127000042D00D90425191D072901D2002300E0FF
:10128000DB1E012606FA05F1491E214099409E40C9
:10129000761E16403143F0BC02F004BE0CED00E0B7
:1012A000064900F0070208684FF6FF03184040EABD
:1012B0000220034A10430860704700000CED00E074
:1012C0000000FA052DE9F0470E46050065D0DFF86D
:1012D0001481D8F80000F7B200F00F00B04207D236
:1012E00088F80070D8F8000000F00F00B04254D128
:1012F00028683D4C810712D5400703D5206840F48B
:10130000E05020602878000703D5206840F4604052
:1013100020602068A96820F0F00008432060287849
:10132000C0072DD0304968680839012812D002283A
:1013300013D0032811D00968890700292DDA216804
:1013400021F0030101432160FFF7E6FB814641F2F2
:10135000883A0EE009688903EFE709688901ECE73C
:10136000FFF7DAFBA0EB0901514502D90320BDE8E4
:10137000F0872068696800F00C00B0EB810FEFD1B6
:10138000D8F80010404601F00F01B14207D90770AC
:10139000006800F00F00B04201D00120E7E7287894
:1013A000400705D52068E96820F4E0500843206034
:1013B0002878000706D52068296920F4604040EAB3
:1013C000C100206000F038F82168084AC1F3031119
:1013D000515CC8400649086006480068FFF7FAFEFD
:1013E0000020C4E7003C0240083802404053000897
:1013F000E8000020E0000020044805490068096872
:10140000044AC1F38221515CC8407047E8000020C3
:10141000083802405053000804480549006809682C
:10142000044AC1F34231515CC8407047E8000020D3
:101430000838024050530008154810B5006810F0F5
:101440000C02144813D04110042A0FD0082A0ED1E0
:101450000F4C241F2268236802F03F025B0207D56D
:101460002068C0F38810A0FB010106E0084610BD0B
:101470002168C1F38811A1FB00010023FEF7A8FE3B
:101480002168C1F30141491C4900B0FBF1F010BDD6
:10149000083802400024F4002DE9F84F04006ED013
:1014A0002078DFF83C93C007A9F104054AD009F180
:1014B00004000168C1F38101012908D00068C0F36C
:1014C000810002280AD1D9F80000400206D5286818
:1014D000800337D560680028E1D033E06068B0F55C
:1014E000803F10D0B0F5A02F286810D020F48030B5
:1014F0002860286820F4802028606068A8B1FFF781
:101500000BFB06460DE0286840F48030F4E740F419
:1015100080202860F7E700BFFFF7FEFA801B6428F1
:1015200073D828688003F7D50CE0FFF7F5FA064674
:1015300005E000BFFFF7F0FA801B6428F0D82868A8
:101540008003F7D42078DFF89C8280074FF0000AF0
:101550003ED5A348001D016811F00C0F08D00068AB
:10156000C0F3810002280BD1D9F80000400207D453
:101570002868800716D5E068012800D112E02BE129
:10158000E068B8B10120C8F80000FFF7C5FA0646C8
:1015900005E000BFFFF7C0FA801B0228C0D828680A
:1015A0008007F7D52868216920F0F80040EAC100DB
:1015B00028600DE0C8F800A0FFF7AEFA064604E088
:1015C000FFF7AAFA801B02281FD828688007F7D4E3
:1015D0002078000722D5824E83486169703671B148
:1015E00001210160FFF798FA074604E0FFF794FA3B
:1015F000C01B022809D830688007F7D50EE0C0F874
:1016000000A0FFF789FA074605E082E0FFF784FAB9
:10161000C01B02287DD830688007F7D420784007A7
:1016200068D5DFF8BCB100270BF13C0BDBF80000FC
:10163000C0000BD4DBF8001041F08051CBF8001053
:10164000DBF80000012700F080500090674E306802
:10165000C00510D4306840F480703060FFF75CFA49
:10166000009005E0FFF758FA0099401A022850D878
:101670003068C005F6D55A4EA0686C3601280FD0E8
:101680000528306810D020F001003060306820F06C
:1016900004003060A068B8B1FFF73EFA00900FE098
:1016A000306840F00100F4E740F004003060F7E7F4
:1016B000FFF732FA0099411A41F28830814266D828
:1016C00030688007F4D50EE0FFF726FA009007E0B7
:1016D000FFF722FA0099411A41F28830814256D828
:1016E00030688007F4D42FB1DBF8001021F080516E
:1016F000CBF80010A069C8B33949091D0968C1F3C6
:10170000810102294AD00228504607D0C8F860005B
:1017100000E03CE0FFF700FA04463BE04746C8F82B
:101720006000FFF7F9F9064605E000BFFFF7F4F99E
:10173000801B02282BD828688001F7D4D4E9070140
:101740000843A16A2A4A490802EB0141626A41EA58
:101750008211084394F82C1040EA0161C9F8001086
:1017600001203866FFF7D8F9044606E036E000BFEE
:10177000FFF7D2F9001B022809D828688001F7D5A5
:101780002CE000BFFFF7C8F9001B022802D9032094
:10179000BDE8F88F28688001F4D41FE00128F7D055
:1017A000D9F80000E26900F48001914214D1226A64
:1017B00000F03F0191420FD147F6C071626A0140CB
:1017C000914209D1A26A00F44031914204D1E16A08
:1017D00000F07060884201D00120D9E70020D7E7EF
:1017E0000438024000004742800E4742007000402B
:1017F0000000FFFF70B5040005D00025A56294F835
:10180000510010B106E0012070BD84F85050204610
:1018100000F030F8022084F851002068016821F0BF
:1018200040010160D4E901010843D4E903121143E6
:10183000084361690843218B01F400710843E169A1
:101840000843216A0843A16A084321680860A06927
:10185000042101EA1040616A084321684860206859
:10186000C16921F40061C1616565012084F85100FE
:10187000002070BD10B586B0044614216846FEF7FE
:10188000DFFC13492068884220D1124800210268F9
:1018900042F480520260006800F4805005900D48C8
:1018A0001438026842F001020260006800F0010092
:1018B0000590E02000900220CDE901010320039073
:1018C0000520049069460448FFF756F806B010BD9D
:1018D0000030014044380240000002402DE9F84F3A
:1018E000044640680025984616460F464FF0040B04
:1018F000B0F5827F01D1A06888B194F8500001282A
:1019000018D0012084F85000FFF706F9814694F8BA
:1019100051004FF0000A01280ED002257DE084F826
:1019200051B013460A462046CDF8008000F02CF94D
:10193000BDE8F88F0220FBE7002F6DD0002E6BD0A2
:1019400084F851B0C4F854A0A763A687E687C4F80A
:1019500030A0A4F834A0A4F836A0C4F840A0C4F87D
:1019600044A0A068B0F5004F04D12068016821F4BC
:101970008041016020680168490603D4016841F094
:1019800040010160E068D8B139E020688168C9078A
:1019900009D0007BA16B0870A06B401CA063E08F96
:1019A000401EE0870CE0FFF7B7F8A0EB09014145C6
:1019B00003D3B8F1FF3F03D036E0B8F1000F33D0C6
:1019C000E08F0028E1D11DE020688168C90709D0B7
:1019D000C068A16B0880A06B801CA063E08F401ED4
:1019E000E0870CE0FFF798F8A0EB0901414503D32D
:1019F000B8F1FF3F03D017E0B8F1000F14D0E08F2B
:101A00000028E1D14A464146204601F08CFE08B14B
:101A100020206065606D00B10125012084F851002F
:101A200084F850A0284683E70325F6E72DE9F84F10
:101A3000044690F8500000271D46164689460128A6
:101A40000DD04FF0010B84F850B0FFF765F88046D9
:101A500094F85100BA46012804D002278EE00220F3
:101A6000BDE8F88FB9F1000F7DD0002E7BD00320A8
:101A700084F85100C4F854A0C4F83090A686E686D5
:101A8000C4F838A0A4F83CA0A4F83EA0C4F844A030
:101A9000C4F840A0A068B0F5004F04D120680168E8
:101AA00041F48041016020680168490603D401685F
:101AB00041F040010160E068B0F5006F606803D05C
:101AC00030B3012E24D040E008B1012E1CD1206B90
:101AD00021680088C86006E020688168890709D508
:101AE000216B0988C160206B801C2063E08E401E42
:101AF000E08609E0FFF710F8A0EB0800A84202D347
:101B0000681C01D031E07DB3E08E0028E4D11FE0F5
:101B1000206B21680078087306E0206881688907D7
:101B200009D5216B09780173206B401C2063E08E7E
:101B3000401EE08609E0FEF7EFFFA0EB0800A84298
:101B400002D3681C01D010E075B1E08E0028E4D10A
:101B500042462946204601F015FE08B12020606566
:101B6000A06820B107E008E0FFE7032706E020684F
:101B7000C16880680090606D00B1012784F851B0A1
:101B800084F850A038466BE72DE9F84F044690F8EA
:101B9000500000270A9E1D4692468B464FF00109D1
:101BA00001280ED0012084F85000FEF7B5FF8046D2
:101BB00094F85100616801280CD0B1F5827F07D1FB
:101BC00002E00220BDE8F88FA16809B9042801D01D
:101BD0000227C2E0BBF1000F27D0BAF1000F24D0DA
:101BE0001DB394F85100042802D0052084F8510058
:101BF00000206065C4F838A0E587A587C4F830B038
:101C0000E586A5862064606420680168490603D4DF
:101C1000016841F040010160E068B0F5006F606864
:101C200005D0E8B3012D46D07FE0012795E008B14B
:101C3000012D39D1206B21680088C860206B801C81
:101C40002063E08E401EE0862EE0206881688907D0
:101C50000FD5E18E69B1B9F1010F0AD1216B098865
:101C6000C160206B801C2063E08E401EE0864FF038
:101C7000000920688168C9070CD0E18F51B1C068A4
:101C8000A16B0880A06B801CA063E08F401EE087E2
:101C90004FF00109FEF740FFA0EB0800B04200E062
:101CA00009E001D3701C50D1E08E0028CDD1E08F27
:101CB0000028CAD13FE0206B216800780873206BB0
:101CC000401C2063E08E401EE0862EE02068816884
:101CD00089070FD5E18E69B1B9F1010F0AD1216BE6
:101CE00009780173206B401C2063E08E401EE08663
:101CF0004FF0000920688168C9070CD0E18F51B10D
:101D0000C068A16B0870A06B401CA063E08F401EF0
:101D1000E0874FF00109FEF7FFFEA0EB0800B0429C
:101D200002D3701C01D010E07EB1E08E0028CDD12E
:101D3000E08F0028CAD142463146204601F022FDFC
:101D400028B101272020606507E0032705E0A0688F
:101D500018B92068C16880680090012084F851009B
:101D6000002084F8500038462CE710B5401EB0F132
:101D7000807F01D3012010BD4FF0E02460610F216E
:101D8000601702F08FF80020A0610720206100207A
:101D900010BD70477047000070B590F83C20012AD4
:101DA0002CD0012480F83C40022280F83D200368BA
:101DB0005A689D6822F070060A6832435A60104BD8
:101DC00002689A420ED0B2F1804F0BD00D4B9A426E
:101DD00008D00D4B9A4205D00C4B9A4202D00C4BC6
:101DE0009A4204D1496825F080031943916080F834
:101DF0003D40002180F83C10084670BD022070BDB7
:101E0000000001400004004000080040000C0040B9
:101E10000040014010B5040003D094F83D0010B11B
:101E200007E0012010BD002084F83C00204600F0AF
:101E30000DF8022084F83D00211D206801F070FD9E
:101E4000012084F83D00002010BD000008B5114AB3
:101E500001681148914208D1016841F00201016016
:101E6000006800F00200009008BD0C4A9142FBD1CE
:101E7000016841F0040101600068002200F00400E4
:101E8000009011461E20FFF7EBF9BDE808401E2028
:101E9000FFF7D8B900040040403802400008004075
:101EA0000168CA6842F00102CA600068816801F0F6
:101EB0000701062903D0016841F0010101600020FB
:101EC00070470168CA6822F00102CA600068016AAE
:101ED00041F21112114207D1016A9210114203D14D
:101EE000016821F0010101600020704770B50446CF
:101EF00090F83C00012817D0012584F83C500220BE
:101F000084F83D002068826822F0770222F47F4244
:101F100082600868502830D00DDC20284DD005DCC8
:101F200098B310283BD148E0022070BD302844D03F
:101F3000402834D139E0602828D0702806D0B0F588
:101F4000805F2CD0B0F5005F29D10AE0CB68D1E9E1
:101F50000121206801F03DFD2068816841F0770192
:101F600009E0CB68D1E90121206801F032FD206849
:101F7000816841F48041816011E0CA684968206845
:101F800001F0DCFD5021206807E016E0CA684968CE
:101F9000206801F0E4FD6021206801F024FD84F850
:101FA0003D50002084F83C0070BDCA684968206834
:101FB00001F0C4FD40212068EFE722680146104689
:101FC000EBE7704770B50446006801694FF0000503
:101FD000C943890715D4C168C943890711D4E91ECB
:101FE000016101202077206880698007204602D0A7
:101FF000FFF7E7FF04E000F0D5F8204600F057F9BE
:10200000257720680169C943490717D4C168C943C6
:10201000490713D46FF00401016102202077206882
:10202000806910F4407F204602D0FFF7CAFF04E029
:1020300000F0B8F8204600F03AF9257720680169E9
:10204000C943090716D4C168C943090712D46FF000
:1020500008010161042020772068C06980072046BC
:1020600002D0FFF7AEFF04E000F09CF8204600F03D
:102070001EF9257720680169C943C90617D4C168CC
:10208000C943C90613D46FF01001016108202077FD
:102090002068C06910F4407F204602D0FFF791FF0E
:1020A00004E000F07FF8204600F001F92577206871
:1020B0000169C943C90708D1C168C943C90704D127
:1020C000891E0161204600F00FF920680169C943AB
:1020D000090609D4C168C943090605D46FF0800117
:1020E00001612046FFF755FE20680169C943490692
:1020F00009D4C168C943490605D46FF040010161A4
:10210000204600F0AFFC20680169C94389060BD462
:10211000C168C943890607D46FF0200101612046D8
:10212000BDE87040FFF736BE70BD000030B587B027
:10213000044614216846FEF783F816492068884251
:1021400026D115480024016841F0020101600168B0
:1021500001F002010591016841F00401016000688D
:10216000022500F00400059003200090CDE9015401
:1021700069460A48CDE90345FEF7FEFBC020009002
:10218000CDE9015469460648CDE90345FEF7F4FB65
:1021900007B030BD00040040303802400004024067
:1021A00000080240704770B5044690F83C000D46A8
:1021B00001280DD0012684F83C60022084F83D00FF
:1021C00042B1042A18D0082A2AD00C2A4DD139E06D
:1021D000022070BD206801F00FFC2068816941F089
:1021E000080181612068816921F004018161206812
:1021F00081692A69114311E0206801F025FC2068FB
:10220000816941F4006181612068816921F4806104
:102210008161206881692A6941EA0221816124E0A3
:10222000206801F03DFC2068C16941F00801C161EE
:102230002068C16921F00401C1612068C1692A696F
:10224000114311E0206801F057FC2068C16941F496
:102250000061C1612068C16921F48061C1612068A9
:10226000C1692A6941EA0221C16184F83D60002008
:1022700084F83C0070BD10B5040003D094F83D0014
:1022800010B107E0012010BD002084F83C0020467A
:1022900000F00CF8022084F83D00211D206801F0B8
:1022A0003FFB012084F83D00002010BD70477047BF
:1022B00010B504460068012201F07EFB0949206840
:1022C000884203D1416C41F4004141642068816837
:1022D00001F00701062903D0016841F00101016006
:1022E000002010BD000001402DE9F04F2DED0E8BB8
:1022F00085B0FE490068DFF8F8B309689FEDFD8BF3
:10230000FE4C88427ED159460BF1B802A1F1B800CB
:1023100001F008F859460BF1B802A1F1B80000F03D
:102320001BFFABF1B80595ED2C0B9FEDF5BB51EC08
:10233000100B53EC1B2BFEF735F895ED2A1B95ED92
:10234000060B41EC190B53EC112B51EC100BFDF764
:1023500082FF9FEDEDAB53EC1A2BFEF723F853EC05
:10236000192BFDF778FF9BED2C0B41EC1D0B5E4606
:1023700053EC1B2B51EC100BFEF714F896ED2A1BB7
:1023800096ED060B41EC190B53EC112B51EC100B95
:10239000FDF761FF53EC1A2BFEF704F853EC192BF1
:1023A000FDF759FF94ED14BB94ED12AB41EC1C0BFF
:1023B00053EC1B2B51EC1A0BFDF74DFF88460746DB
:1023C00048EC190B6069FEF717F953EC1B2BFDF76E
:1023D000E9FF41EC1E0B53EC1A2B51EC1D0BFDF7E2
:1023E000E1FF53EC1E2BFDF736FF53EC192BFEF7E4
:1023F0004BF841EC100B85ED060BFEF741F948EC6C
:10240000197B00E099E260612069FEF7F5F853EC72
:102410001B2BFDF7C7FF41EC1B0B53EC1A2B51ECA8
:102420001C0BFDF7BFFF53EC1B2BFDF714FF53EC08
:10243000192BFEF729F841EC100B86ED060BFEF781
:102440001FF900EE100A05F5B8725946B1EE400AC0
:1024500084ED060A2061284602F0FAFD2078AC4897
:102460000068FEF7C9F895ED061B53EC112BFDF73C
:1024700093FFFEF705F900EE100AA648DFF89C82EC
:10248000A74D80ED000AD4ED070AA348A54960EEE8
:10249000800AC0ED000A10EE100A40450BD210EE83
:1024A000100AA84207DA91ED001AD4ED091A01EEDC
:1024B000801A81ED001A9C48D4ED081A9B4A90EDD1
:1024C000001ADFF86C9230EE411A21EE211A82EDEB
:1024D000001A80ED000A9FED979A0868484501DDD3
:1024E00081ED009ADFF850A2DFED94AA086850450C
:1024F00001D9C1ED00AA91ED000A914F30EE800A9A
:1025000030EE010A10EE100A84ED010ADFED8D9A1B
:10251000B84201D9C4ED019A8B4E9FED8CAA606838
:10252000B04201DD84ED01AA8948D4ED060A90EDA0
:10253000000A30EE600A10EE100AFEF75DF89FED1B
:10254000851B53EC112BFDF727FFFEF799F800EEE2
:10255000100A8248834980ED000AD4ED0A0A8048B7
:1025600060EE800AC0ED000A10EE100A40450BD262
:1025700010EE100AA84207DA91ED001AD4ED0C1AF9
:1025800001EE801A81ED001A7748D4ED0B1A774AD4
:1025900090ED001A30EE411A21EE211A82ED001A58
:1025A00080ED000A0868484501DD81ED009A086861
:1025B000504501D9C1ED00AA91ED000AB84630EEB0
:1025C000800A30EE010A10EE100A84ED020A40453E
:1025D00001D9C4ED029AA068B04201DD84ED02AADF
:1025E00063480068FEF708F841EC100B4048B8302B
:1025F00090ED061B51EC100B53EC112BFDF7CCFEAC
:10260000FEF73EF809EE100A5A4880ED009A94ED64
:102610000D0A594860EE09AAC0ED00AA94ED0F0A10
:1026200020EE090A10EE100AFDF7E6FF94ED12CB3A
:1026300053EC1C2BFDF7B6FE504D41EC1B0B2868EC
:10264000FDF7DAFF53EC1B2BFDF705FEFEF718F83C
:10265000DFF82C912860D4ED0E0A99ED000A0746A8
:1026600039EE400A20EE200A10EE100AFDF7C4FFF2
:1026700053EC1C2BFDF708FFFEF702F800EE100AE2
:10268000404880ED000A404889ED009A874203DD0A
:10269000DFED3E0AC5ED000A3D492868884202D8B0
:1026A00000EE900A03E0DFED3B0AC5ED000A7AEE8A
:1026B000A00A30EE800A10EE100A84ED030A4045AD
:1026C00001D9C4ED039AE0689FED339B344DB042CD
:1026D00001DD84ED03AA95ED000B53EC192B51ECB1
:1026E000100BFDF7B5FF5FD25CE000008C0400200A
:1026F000100200200000000000408F400000002079
:102700007B14AE47E17A943F5C8FC2F5285CEF3FC3
:10271000A0000020A4000020AC0000200000F0C1B8
:102720000000F0417C000020A8000020B000002044
:102730000000C8420000C8420000C8C20000C8C271
:102740000000C8C30000C8C30000C8430000C8435D
:10275000B40000209A99999999990140B8000020F5
:10276000C000002080000020BC000020C400002029
:10277000C8000020CC000020D400002084000020ED
:10278000D0000020D800002000004842000048424D
:10279000000048C2000048C20000000000709740DE
:1027A0008800002085ED009BE0680646FDF724FFC9
:1027B00041EC1A0BA0688046FDF71EFF95ED009BCB
:1027C00053EC192BFDF747FD53EC1A2BFDF7E4FDF5
:1027D0008F4DC5E900013046FDF70EFF41EC1A0BA5
:1027E00060680746FDF708FF53EC192BFDF733FD32
:1027F00053EC1A2BFDF72FFDC5E902013046FDF71A
:10280000FBFE41EC1A0B4046FDF7F6FE53EC192B8C
:10281000FDF7C5FD53EC1A2BFDF7BEFDC5E904011C
:102820003046FDF7E9FE41EC1A0B3846FDF7E4FEB1
:1028300053EC192BFDF7B3FD53EC1A2BFDF70BFDF1
:1028400000269FED74ABC5E9060100BF05EBC60786
:1028500053EC1A2B97ED000B51EC100BFDF7F8FE23
:1028600006D2B0EE4A0AF0EE6A0A87ED000B0EE0DF
:1028700097ED000BB0EE489AF0EE689A53EC192BE6
:1028800051EC100BFDF7CCFE01D287ED009B761CBE
:10289000042EDBDB614895ED000B90ED00BB51ECA5
:1028A000100B53EC1B2BFDF7D6FC41EC190B5C48CD
:1028B00084ED169B95ED020B90ED00CB51EC100BC7
:1028C00053EC1C2BFDF7C7FC41EC1A0B53EC1B2BF4
:1028D00084ED18AB95ED040B51EC100BFDF75CFD8E
:1028E00041EC1B0B53EC1C2B84ED1ABB95ED060B36
:1028F00051EC100BFDF750FD41EC1C0B51EC190B8A
:1029000084ED1CCBFDF75FFE464D80B2296848631D
:1029100051EC1A0BFDF757FE296880B2886351EC21
:102920001B0BFDF750FE296880B2C86351EC1C0BED
:10293000FDF749FE296880B20864206C411C2164BF
:1029400002285FDD38489FED399A9FED39AB90ED55
:10295000000A53EC1A2B20EE090ABDEEC00A10EE55
:10296000107A9BED060B51EC100BFDF774FC53EC49
:10297000182BFDF717FDFDF707FE06462E4853EC12
:102980001A2B90ED000A2D4820EE090AFDEEC09AA0
:1029900090ED060B51EC100BFDF75DFC53EC182B82
:1029A000FDF700FDFDF7F0FD0546254853EC1A2B19
:1029B00090ED000A164820EE090AB838BDEEC09A1C
:1029C00090ED060B51EC100BFDF745FC53EC182B6A
:1029D000FDF7E8FCFDF7D8FDCDED009A01958DEDF2
:1029E000029A0390154833463A4616A1683801F01A
:1029F0002DFA124982B264236839194800F011F99E
:102A00000020206405B0BDEC0E8BBDE8F08F000007
:102A1000800300200000000000409F409000002044
:102A2000980000204C040020A000002000007A4400
:102A30000000000000804640B40000205801002043
:102A4000C8000020412C256C642C256C642C256C5E
:102A5000642C256C642C256C642C256C640A0000A5
:102A60000C050020704770B5040004D094F83900BC
:102A7000002510B106E0012070BD84F838502046D2
:102A800000F022F8242084F839002068C16821F47D
:102A90000051C160204601F011F92068016921F45C
:102AA000904101612068416921F02A01416120685B
:102AB000C16841F40051C160E563202084F8390009
:102AC00084F83A00002070BDF0B587B004461421A8
:102AD0006846FDF7B5FB1F4F236800221E490224FC
:102AE000032507261D48BB4213D11B4B14331F6817
:102AF00047F010071F601B6803F0100305930B6875
:102B000043F001030B60096801F0010105916902BE
:102B100015E0134FBB421AD10F4B10331F6847F417
:102B200000371F601B6803F4003305930B6843F004
:102B300001030B60096801F0010105910C21CDE949
:102B4000001402AB694683E86400FDF715FF07B087
:102B5000F0BD00000010014030380240000002408B
:102B6000004400402DE9F843044690F83A009946A5
:102B700016460D46202852D1BDB1B6B194F83800A2
:102B800001284CD0012084F838000027E763222078
:102B900084F83A002C34FDF7BFFF24F8026B80461E
:102BA00024F80A6B04F8387931E00120BDE8F88395
:102BB000E08D401EE085A0684346B0F5805F4FF091
:102BC00000024FF020012046CDF8009004D001F023
:102BD00009F998B10320E9E701F004F90028F9D1D7
:102BE000206900282068406803D0C1B225F8011B85
:102BF0000DE0C0F3080125F8021B08E02069002859
:102C00002068406801D000F07F0005F8010BE08DDE
:102C10000028CDD1202084F83A000020C6E7022009
:102C2000C4E72DE9F843044690F839001F461646DC
:102C30000D46202850D1B5B1AEB194F83800012826
:102C40004AD0012084F838004FF00008C4F83C80D6
:102C5000212084F83900FDF75FFFA6848146E684D1
:102C600084F8388026E00120BDE8F883E08C401E1F
:102C7000E084A0684B46B0F5805F4FF000024FF053
:102C800080012046009703D001F0ACF8E8B90DE0D0
:102C900001F0A8F8C8B928882168C0F30800486086
:102CA000206908B16D1C05E0AD1C03E0216815F832
:102CB000010B4860E08C0028D8D14B46002240210F
:102CC0002046009701F08EF808B10320CCE72020C1
:102CD00084F839000020C7E70220C5E7FEE7016855
:102CE0004A69D24352050FD46FF480624A610021D1
:102CF00040F8301F202242738173026942F00402BF
:102D00000261017301207047002070472DE9F84FE0
:102D10000446C06A1E4693460D4621680A6842F47E
:102D200080620A60082807D0012805D010F5803F8E
:102D300002D0206B112804D12068016841F4807111
:102D400001604FF001195B4600224946204600967B
:102D500000F0C6F84FF4007840B120680068C00564
:102D600001D5C4F840800320BDE8F88F2069DFF862
:102D700084A0B0F5804F0FD00620216800EAD51757
:102D800047F0F000086133465A460AF10601204632
:102D900000F0DAF858BB03E0E8B240F001001CE0B4
:102DA0002168E8B2086133465A465146204600F091
:102DB000CBF8E0B92068416981690091016841F46C
:102DC000807101605B46002249462046009600F073
:102DD00087F80028C1D147F0F10021680861334627
:102DE0005A465146204600F0AFF80028BCD00120DA
:102DF000BAE7000002000100F8B50446C06A1E46AA
:102E00000D461746082807D0012805D010F5803F49
:102E100002D0206B122804D12068016841F480712F
:102E20000160134600224FF001112046009600F089
:102E300057F840B120680068C00502D54FF4007013
:102E400020640320F8BD2069B0F5804F0ED0062025
:102E5000216800EAD51040F0F000086133463A4698
:102E60000B49204600F070F878B902E005F0FE004A
:102E700000E0E8B221680861054933463A46891FF7
:102E8000204600F061F80028DCD00120F8BD0000E9
:102E90000800010070B516460D4604460DE02046B8
:102EA000FFF71DFF08B1012070BD681C05D0FDF7BC
:102EB00033FE801BA84207D835B120684069C04363
:102EC0004007ECD4002070BD002044F8300F2021D2
:102ED0006173A073216941F0200121612073E2E751
:102EE0002DE9F0471E4690460D460446C1F30747BC
:102EF000DDF8209008E0701C06D0FDF70DFEA0EB79
:102F00000900B0420FD876B12068012F18D080692F
:102F100025EA00000004000C14D000214145EAD04D
:102F20000020BDE8F087002044F8300F20216173B5
:102F3000A073216941F02001216120730120F0E795
:102F40004069E5E70121E9E72DE9F0479A46914616
:102F50000E46044600254FF02008C1F3074725E040
:102F600020684069C043400514D42068016841F4DA
:102F70000071016021686FF480604861256384F806
:102F80003D8084F83E50206C40F00400206484F8BA
:102F90003C501FE0B9F1FF3F08D0FDF7BDFDA0EBAD
:102FA0000A0149450CD8B9F1000F09D02068012F5A
:102FB00013D0806926EA00000004000C0BD0CFE794
:102FC00044F8305F84F80D80A573206940F020003C
:102FD000206125730120BDE8F0874069EAE72DE90B
:102FE000F041002590460E460446202717E0406930
:102FF000C043C0060CD454F8301B6FF01000486179
:1030000044F810596777A577206A2062257717E082
:10301000FDF782FDA0EB0800B04208D83EB1206861
:103020004169C9434906E2D40020BDE8F08144F873
:10303000305F6773A573206940F02000206125731D
:103040000120F2E770B516460D4604460DE0204615
:10305000FFF745FE08B1012070BD681C05D0FDF7E3
:103060005BFD801BA84207D835B120684069C0438A
:103070000006ECD4002070BD002044F8300F202161
:103080006173A073216941F0200121612073E2E79F
:1030900038B52F4C002208212046FDF737FD2020AF
:1030A0008DF800000F208DF801006423022269468C
:1030B0002848FEF7BBFC012208212046FDF726FD2B
:1030C0000A20FDF747FC23208DF8000090208DF8A2
:1030D00001006423022269461E48FEF7A7FC012274
:1030E00008212046FDF712FD0A20FDF733FC0022DF
:1030F00008212046FDF70AFD24208DF8000012204B
:103100008DF801006423022269461248FEF78EFC06
:10311000012208212046FDF7F9FC0A20FDF71AFCE0
:10312000002208212046FDF7F1FC21208DF8000047
:1031300014208DF801006423022269460548FEF739
:1031400075FC012208212046FDF7E0FC38BD000097
:1031500000100240F4030020F0B5394F14462DED65
:10316000048B0D46064683B0002208213846FDF741
:10317000CDFCE8208DF80000282301226946314863
:10318000FEF754FC2823062201A92E48FEF7A6FBD1
:10319000012208213846FDF7B9FCBDF90400FDF70E
:1031A000E2F99FED298B53EC182BFDF76DF99FED9C
:1031B000289B53EC192BFDF7F5F8E6E90C01BDF956
:1031C0000600FDF7D0F953EC182BFDF75DF953EC31
:1031D000192BFDF7E7F8E5E90C01BDF90800FDF74B
:1031E000C2F953EC182BFDF74FF953EC192BFDF7EF
:1031F000D9F8E4E90C0196ED000B9FED178B51EC2B
:10320000100B53EC182BFDF7CDF8C6E91E0195ED18
:10321000000B53EC182B51EC100BFDF7C3F8C5E96C
:103220001E0194ED000B53EC182B51EC100BFDF725
:10323000B9F8C4E91E0103B0BDEC048BF0BD000079
:1032400000100240F403002000000000C0FFDF4037
:103250000000000000407FC09A9999999999993F80
:103260007CB500240A23022232212C48FDF71EFDE2
:1032700000284CD0641CC82CF4DB20258DF80450A9
:1032800057208DF805006424022301AA3221234827
:103290000094FDF7B1FE0A20FDF75CFB23208DF8BA
:1032A000040080208DF80500022301AA32211B486A
:1032B0000094FDF7A1FE0A20FDF74CFB00268DF8D7
:1032C000046010208DF805000A20FDF743FB02235F
:1032D00001AA3C2111480094FDF78EFE01208DF8D3
:1032E00004008DF80550022301AA3C210B480094EC
:1032F000FDF782FE02208DF8040003468DF805607C
:1033000001AA3C2105480094FDF776FE7CBD012210
:1033100011030348FDF7FAFBAFE70000A00300200C
:10332000000C024070B505462DED068B84B0A82038
:103330000C468DF80C006426012303AA322148486C
:103340000096FDF759FE062301AA32214448009653
:10335000FDF762FD9DF805009DF80810000202B21D
:103360009DF8040002439DF8070000EE102A0002B9
:1033700003B29DF80600F8EEC09A03439DF80900D9
:10338000000200B208439FED379A00EE103A69EE52
:10339000890AB8EEC00A60EE098A00EE100AB8EE9B
:1033A000C00A20EE098A20EEA00A08EE080A10EEF4
:1033B000100AFDF721F941EC100B00F0B9FFB0EE57
:1033C00040AAF0EE60AA18EE900AFDF715F953EC4A
:1033D0001A2BFDF759F841EC100B00F075FD51EC7C
:1033E000100BFDF74DF900EE100A9FED1FAA20EE1D
:1033F0000A0A10EE100AFDF7FFF828EEA80AC5E940
:103400002C0108EE080A10EE100AFDF7F5F841EC61
:10341000100B00F08DFFB0EE408A29EEC90AF0EEE5
:10342000608A10EE100AFDF7E7F853EC182BFDF751
:103430002BF841EC100B00F047FD51EC100BFDF7A1
:103440001FF900EE100A20EE0A0A10EE100AFDF72E
:10345000D3F8C4E92C0104B0BDEC068B70BD0000AC
:10346000A003002000008038E62E654230B587B00A
:1034700014216846FCF7E4FE1D480024016841F071
:1034800010010160016801F010010591016841F02F
:1034900080010160016801F080010591016841F03F
:1034A00001010160016801F001010591016841F02D
:1034B00002010160016801F002010591016841F01B
:1034C0000401016000680B4D00F00400059000222B
:1034D00008212846FDF71AFB082000900120CDE9BD
:1034E0000104694628460394FDF746FA07B030BD4B
:1034F00030380240001002400D4810B50B49016001
:103500000C49416000214FF480428160C0E9031200
:1035100041618161C1610162FDF704FB002803D0B4
:10352000BDE81040FDF715BA10BD00000054004082
:10353000A0030020801A0600104810B50E49016053
:103540004FF48271416000218160C1604FF40072CC
:103550000161C0E905121822C0E9072141628162B8
:103560000A21C162FEF746F9002803D0BDE81040E9
:10357000FDF7EFB910BD000000300140F40300205A
:1035800010B58EB000240794089409940A940B9403
:103590001C2168460C94FCF753FE2A482849016018
:1035A0006421C0E9011444F61F61C0E90314846179
:1035B000FEF730FC08B1FDF7CCF94FF480500790CE
:1035C00007A92048FEF792FC08B1FDF7C2F91D4893
:1035D000FEF751FE08B1FDF7BCF90B940BA9194891
:1035E0000C94FEF7D9FB08B1FDF7B3F96020CDE9E3
:1035F000000402940022694612480494FEF7D3FDA9
:1036000008B1FDF7A6F9042269460E48FEF7CBFD86
:1036100008B1FDF79EF9082269460A48FEF7C3FD86
:1036200008B1FDF796F90C2269460648FEF7BBFD86
:1036300008B1FDF78EF90348FEF778FD0EB010BD16
:10364000000400404C04002010B586B00024164849
:103650000094019402940394049412490594016027
:103660001321C0E901141149C0E903148461FEF774
:10367000D1FB08B1FDF76DF94FF480500090694619
:103680000948FEF733FC08B1FDF763F9049404A977
:1036900005480594FEF780FB002801D0FDF759F995
:1036A00006B010BD000800408C04002047E801006F
:1036B0000C4810B50A4901604FF4165141600021D1
:1036C00081600C22C160C0E904128161C161FFF711
:1036D000CAF9002803D0BDE81040FDF73AB910BD83
:1036E00000100140CC0400200C4810B50A490160CC
:1036F0004FF416514160002181600C22C160C0E985
:1037000004128161C161FFF7AEF9002803D0BDE862
:103710001040FDF71EB910BD004400400C0500200C
:10372000FEE770477047F8B5044640684FF482736F
:10373000984221D1A0684FF48065B0F5004F01D0C8
:10374000A8420AD12068066826F040060660606834
:10375000984211D1A068A8420ED000920B460022D8
:103760008021204600F03AF8002804D0606D40F037
:10377000200060650320F8BD00920B460022012165
:10378000EFE7000038B504461248134B0068B0FB61
:10379000F3F04FF47A73584300906068B0F5827F7D
:1037A0000DD10B46009200228021204600F016F831
:1037B00070B1606D40F020006065032038BD009856
:1037C00030B1401E009020688068C0430006F6D5E6
:1037D000002038BDE800002000366E012DE9F041E0
:1037E0001D4617460E460446DDF8188008E0681CA2
:1037F00006D0FDF791F9A0EB0800A8420BD255B115
:103800002068806836EA000030D00020B842EED14F
:103810000020BDE8F0812068416821F0E0014160AE
:103820006068B0F5827F0BD1A068B0F5004F02D080
:10383000B0F5806F04D12068016821F0400101607B
:10384000A06AB0F5005F09D12068016821F4005139
:1038500001602068016841F400510160012084F892
:103860005100002084F850000320D2E70120CDE76A
:103870007047FDF78DBC000030B593B0302168462D
:10388000FCF7DEFC14210CA8FCF7DAFC1848002534
:10389000016841F080510160006800F08050119093
:1038A0001448016841F4404101600068022400F4BA
:1038B0004040119001200090000401908001CDE96A
:1038C000064008AA0420642182E813000B90684691
:1038D000FDF7E2FD0CA90F2081E83100E002CDE9FF
:1038E0000F0503210CA8FDF7EDFC13B030BD00005F
:1038F00040380240007000400548016841F4700102
:10390000016003494FF00060803908607047000093
:1039100088ED00E00148FEF755BB00008C04002054
:10392000F0B502681D4B1E4C9F031E4D1E4E984263
:1039300007D0B84205D0A04203D0A84201D0B0427F
:1039400004D122F0700C4A6842EA0C02984210D06E
:10395000B8420ED0A0420CD0A8420AD0B04208D043
:10396000124CA04205D0124CA04202D0114CA042F1
:1039700003D122F44074CA6822434C6922F08002C9
:10398000224302608A68C2620A688262984201D158
:103990000969016301214161F0BD0000000001409F
:1039A0000004004000080040000C004000400140BE
:1039B000004401400048014010B501F01F030121FF
:1039C000046A99408C430462016A9A40114301627F
:1039D00010BD10B5846842EA032224F47F440A43F0
:1039E0002243826010BD826822F070020A4342F0D6
:1039F000070181607047000030B5026A22F00102C1
:103A00000262026A4368846924F073050C682C43DF
:103A100022F002058A682A430A4DA8420BD122F0FF
:103A20000805CA6823F440732A434D6922F0040252
:103A30001D438B692B434360846149684163026283
:103A400030BD00000000014030B5026A22F01002D3
:103A50000262026A436884690D6824F4E64444EA19
:103A600005248D6822F0200242EA05120B4DA8427F
:103A70000ED1CD6822F0800242EA05124D6923F48E
:103A8000406343EA85038D6922F0400243EA8503DF
:103A90004360846149688163026230BD0000014077
:103AA00030B5026A22F480720262036A4268C46915
:103AB00023F4007324F073050C682C438D6843EAEB
:103AC00005230C4DA8420ED1CD6823F4006343EAD0
:103AD00005234D6922F4405242EA05128D6923F410
:103AE000806342EA05124260C4614968C1630362AF
:103AF00030BD00000000014030B5026A22F480525F
:103B00000262046A4268C3690D6823F4E64343EA2B
:103B100005238D6824F4005444EA0534064DA84278
:103B200004D14D6922F4804242EA85124260C361A9
:103B300049680164046230BD0000014010B5036AA9
:103B4000046A24F001040462846924F0F00444EA65
:103B5000021423F00A020A438461026210BD10B508
:103B6000036A23F0100303628369046A23F4704339
:103B700043EA023224F0A00343EA011182610162A8
:103B800010BD000010B5642301223E493E48FEF7F7
:103B9000E9FF3C4C3D489FED3E0B2178142951D064
:103BA0000DDCA1F10D019FED3C1B9FED3D2B072985
:103BB0001AD2DFE801F02A2F31363B4042001829A3
:103BC00012D012DC15299FED380B40D016290BD0EE
:103BD000172909D153EC102B94ED040B51EC100B69
:103BE000FCF7DAFBC4E9040110BD372938D04229BB
:103BF00043D0FF29F8D124488038FEF762F92248E3
:103C0000BDE810408038FEF74BB90B21017084ED00
:103C1000061B10BD0C2105E00D21017084ED062B63
:103C200010BD0E21017084ED060B10BD0F21017037
:103C300084ED081B10BD102105E01121017084EDF9
:103C4000082B10BD1221017084ED080B10BD53EC40
:103C5000102B94ED040B51EC100BFCF7FCFAC1E7B0
:103C6000132101709FED120A84ED030A84ED010A0D
:103C700084ED020A9FED0F0B01E01421017084ED29
:103C8000040B10BD780000200C050020000000206F
:103C900000000000000000000000000000000040E4
:103CA00000000000000000C00000000000002E40E6
:103CB000000000000000000000408F402DE9F041AE
:103CC000044600680169E26821F440511143016132
:103CD0002169A068E26908436169114308432168CA
:103CE000CA6849F20C639A430243CA60206841697A
:103CF000A26921F4407111434161E06919276425EB
:103D00003226B0F5004F354A354920684FF000089B
:103D100006D0884201D0904236D1FDF77DFB35E0D8
:103D2000884201D0904202D1FDF776FB01E0FDF719
:103D300063FB61684A18A0FB070148EB0803FCF726
:103D400047FA0146B0FBF5F00201B1FBF5F06FF068
:103D50001803584301EB800006EBC000B0FBF5F000
:103D600000F0F80002EB4002B1FBF5F0584301EB24
:103D7000800006EBC000B0FBF5F000F00700216802
:103D800010448860BDE8F081FDF736FB61688B0F59
:103D90008A00A0FB0701FCF71BFA0146B0FBF5F017
:103DA0006FF01802504301EB800006EB0010B0FBEF
:103DB000F5F000F0F002B1FBF5F002EB0012B1FB00
:103DC000F5F06FF01803584301EB800006EB00108C
:103DD000B0FBF5F000F00F00D1E700000014014047
:103DE000001001402DE9F041984617460E46044662
:103DF000069D1DE0681C1BD02DB1FCF78DFEA0EBCD
:103E00000800A84214D92068C16821F4D071C160AB
:103E10002068416921F001014161202084F83900C6
:103E200084F83A00002084F838000320BDE8F081CF
:103E30002068006836EA000004D00020B842D9D0DB
:103E40000020F3E70120F9E7FEE700000FB4084B7C
:103E500010B504A902AA039800F0D4FE044602A9F2
:103E6000002001F070F8204610BC5DF814FB000043
:103E7000474F000803B401984100009850EAC12060
:103E800018BF04204A0D18BF40F0010040F2FF7235
:103E9000B2EB515F08BF40F00200012808BF0520C7
:103EA00002B070470907090E002804DB00F1E0208A
:103EB00080F80014704700F00F0000F1E02080F857
:103EC000141D70470000000070B59B482DED020BDB
:103ED0002DED068B079D25F00044A04218DC974885
:103EE000844202DC0AD1069840B19DED060BBDEC80
:103EF000068B02B0BDE8704000F042BE002DCCBF82
:103F00009FED8F0B9FED900BBDEC068B02B070BD4B
:103F10008F48A04215DD8F48A042D8BF4FF0FF3434
:103F200058DD9DED060B51EC100BFFF7A3FF0428A5
:103F300008BF00F041FE9DED060BBDEC068B02B004
:103F400070BD9DED060B51EC100B01F001F8CDE9B1
:103F5000060181489FED828BA0423CDD8248A04251
:103F60001FDD00249FED82AB9DED060B53EC1A2B59
:103F700051EC100BFCF76FF99DED060B41EC190BA2
:103F800053EC1A2B51EC100BFCF70CFA53EC182BDA
:103F9000FCF702FA53EC192BFCF776FACDE906018F
:103FA00049E09DED060B012453EC182B51EC100B4E
:103FB000FCF751F99DED060B41EC190B53EC182B56
:103FC00051EC100BFCF7E8F953EC192BFCF75CFAF9
:103FD000CDE906012FE06848A0421FDD02249FEDD5
:103FE000689B9DED060B53EC192B51EC100BFCF765
:103FF000D9F953EC182BFCF72EF99DED060B41EC8B
:10400000180B53EC192B51EC100BFCF7C5F953ECC2
:10401000182BFCF739FACDE906010CE09DED060BF3
:10402000032453EC102B9FED580B51EC100BFCF7B5
:104030002BFACDE906019DED060B53EC102B51EC4C
:10404000100BFCF7AFF941EC180B53EC182BFCF7F5
:10405000A9F941EC190B4E480621B0EE490AF0EEE1
:10406000690A784400F078FC53EC182B51EC100BE3
:10407000FCF798F941EC180B4648B0EE490AF0EE0F
:10408000690A0521784400F067FC53EC192B51ECC8
:10409000100BFCF787F941EC100B51EC180B53ECAB
:1040A000102B002C0EDAFCF7D6F89DED061B53EC16
:1040B000112BFCF777F99DED061B53EC112BFCF748
:1040C0006EF935E0FCF7C7F89DED061B53EC112B9C
:1040D000FCF768F941EC100B2F48784400EBC40062
:1040E00090ED001B51EC100B53EC112BFCF754F925
:1040F0009DED061B53EC112BFCF74EF941EC100B18
:104100002648784400EBC40090ED001B51EC100BE6
:1041100053EC112BFCF743F941EC100B002DA2BF1F
:10412000BDEC068B02B070BD51EC100B81F000416C
:1041300041EC100B01E70000000010440000F07F8C
:10414000182D4454FB21F93F182D4454FB21F9BF8D
:104150000000DC3F0000203E0000F33F00000000B4
:10416000000000000000F03F0000E63F00000000FB
:10417000000000000000004000800340000000003C
:10418000000000000000F83F000000000000F0BF49
:104190005A130000101300009A120000521200007F
:1041A00010B52F499FED2C1B2DED020B84B0059807
:1041B00020F000408842D8BF9DED040B2DDD294939
:1041C000884209D1049840B94FF0010000F014FD75
:1041D00000F0E2FC06B010BD05DB9DED040B00F025
:1041E000CFFC06B010BD68469DED040B00F0E0F872
:1041F00010F0030004BF9DED021B9DED000B0CD0E1
:1042000001280ED09DED021B9DED000B022817D05A
:10421000012000F01DFC06B010BD00F0E5FA06B06C
:1042200010BD9DED021B9DED000B012000F010FC68
:1042300051EC100B81F0004106B041EC100B10BDA9
:1042400000F0D2FA51EC100B81F0004106B041ECC5
:10425000100B10BD00000000000000000000000076
:10426000FB21E93F0000F07F10B52F499FED2C1B8B
:104270002DED020B84B0059820F000408842DCBF91
:1042800000209DED040B32DD2849884209D10498B5
:1042900040B94FF0010000F0AFFC00F07DFC06B02B
:1042A00010BD05DB9DED040B00F06AFC06B010BDEF
:1042B00068469DED040B00F07BF810F0030011D070
:1042C000012818D09DED021B9DED000B02281AD08D
:1042D00000F08AFA51EC100B81F0004106B041EC7D
:1042E000100B10BD9DED021B9DED000B012000F099
:1042F000AFFB06B010BD9DED021B9DED000B00F065
:1043000073FA06B010BD012000F0A2FB51EC100BB7
:1043100081F0004106B041EC100B10BD0000000020
:104320000000000000000000FB21E93F0000F07FDA
:1043300000B52DED048BB0EE409AF0EE609A83B09C
:1043400051EC190BFCF793FA41EC180B18EE100A1C
:1043500018EE901A8DED008B002818BF012008433D
:1043600020F00040C0F17F6000F1E040C00F14D0A9
:1043700019EE101A19EE900A8DED009B002918BF56
:104380000121084320F00040C0F17F6000F1E040CF
:10439000C00F04BF012000F02FFCB0EE480A03B0AC
:1043A000F0EE680ABDEC048B00BD000000000000C8
:1043B0002DE9F14F04462DED020B2DED088B8AB04F
:1043C0009FEDE70B80ED020B139EE74826F00045BA
:1043D00085420ADC9DED120B002084ED000B0AB033
:1043E000BDEC088B03B0BDE8F08FE0489FEDE0AB7B
:1043F0009FEDE1BBA84247DDE14F9FEDE39B9FEDC1
:10440000E48B9DED120B53EC1A2B51EC100B002E8C
:104410001CDDFBF7C1FF41EC100BBD4208D053EC93
:104420001B2B51EC100BFBF7B7FFC4E900010BE0AD
:1044300053EC192B51EC100BFBF7AEFF53EC182B80
:10444000FBF7AAFFC4E900010120C8E7FBF703FF5F
:1044500041EC100BBD4208D053EC1B2B51EC100B60
:10446000FBF7F9FEC4E900010BE053EC192B51EC0A
:10447000100BFBF7F0FE53EC182BFBF7ECFEC4E936
:1044800000014FF0FF30AAE7C348A84279DB9DED59
:10449000120B51EC100B00F05BFD41EC180B9FED83
:1044A000C00B53EC102BFBF77DFF9FEDBF1B53ECB4
:1044B000112BFBF7D0FEFCF767F80746FCF753F823
:1044C00041EC190B53EC1A2BFBF76CFF53EC182B38
:1044D000FBF765FF41EC180B53EC1B2B51EC190B50
:1044E000FBF760FFDFF8C8A241EC100B4FEA15584C
:1044F0000125FA4453EC102B51EC180BFBF74CFF41
:10450000032DC4E900013DD0C1F30A5005EB45116C
:10451000A8EB00001139814234DA0AEB051BB0EE3A
:1045200048AA9BED000BF0EE68AA53EC102B51EC5F
:10453000190BFBF737FF41EC1B0B51EC1A0B53EC3B
:104540001B2BFBF729FF41EC180B51EC1A0B53EC1A
:10455000182BFBF721FF53EC1B2BFBF71DFF9BEDEB
:10456000020B41EC1A0B53EC102B51EC190BFBF71F
:1045700019FF53EC1A2BFBF70FFF41EC100B6D1CCE
:10458000B8E70EE0002EA8BF3846BFF628AF94ED7E
:10459000000B51EC100B81F00041C4E9000178429E
:1045A0001DE7C6F3130040F4801EC6F30A50A0F2C4
:1045B000F530471100F01F05C5F12000DDF848B0C7
:1045C00008900020069007900520EC467949002DC0
:1045D00007EB0002794408BF51F8221009D051F8C6
:1045E000223001EB8201AB404A68089922FA01F1BE
:1045F0001943A1FB0E26A1FB0B131A449A4234BFA8
:104600000123002303EB06080CEB8003D3E901A68A
:104610000E448E4234BF0121002192448A4411B1DC
:10462000924502D903E0924501D2012100E0002128
:10463000C3E901A641444CF82010011EA0F101007D
:10464000C4DC029800F10050850F0298DDE9036791
:104650008000DDF81480FBF786FF41EC1A0B304632
:10466000FCF768F99FED541B53EC112BFBF79AFEF6
:1046700041EC1B0B3846FCF75DF99FED511B53ECE9
:10468000112BFBF78FFE41EC180B4046FCF752F95B
:104690009FED4D1B53EC112BFBF784FE41EC190BE6
:1046A00051EC180B53EC192BFBF7D5FD53EC1B2BDE
:1046B000FBF7D1FD53EC1A2BFBF7CDFDCDE908013B
:1046C000002008909DED080B53EC1A2B51EC100BB9
:1046D000FBF762FE53EC1B2BFBF75EFE53EC182B33
:1046E000FBF75AFE53EC192BFBF759FE9FED381BD5
:1046F00053EC112BFBF756FE9FED370B41EC180BDB
:1047000053EC102B9DED080B51EC100BFBF74AFE00
:1047100053EC182BFBF79FFD9FED310B41EC180B71
:1047200053EC102B9DED080B51EC100BFBF73AFEF0
:1047300053EC182BFBF78FFD41EC100B139810F086
:10474000004F06D06D4251EC100B81F0004141EC5E
:10475000100B284684ED000B41E60000000000002D
:104760000000000000000000FB21E93F7CD902406E
:1047700000004054FB21F93F3163621A61B4D03D1F
:10478000FB21F93F000000000000601A61B4D03D39
:104790007370032E8A19A33BFB21394100000000EE
:1047A00083C8C96D305FE43F000000000000E03FB7
:1047B0002A0F0000780E0000000000000000103EEC
:1047C000000000000000103C000000000000103A53
:1047D000182D4454FB21F93D3326A611460B113CFC
:1047E00000000054FB21F93D10B52DED040B2DED1B
:1047F000088B82B0B0EE419AF0EE619A0B9820F0EF
:1048000000449FED4BABB4F1795F11DA9DED0A0BDB
:1048100051EC100BFBF7B8FE002801BFB0EE4A0ABE
:10482000F0EE6A0A02B0BDEC088B04BF04B010BD04
:104830009DED0A0B53EC102B51EC100BFBF7B2FD66
:1048400041EC180B3C480621B0EE480AF0EE680A2D
:10485000784400F081F853EC182B51EC100BFBF767
:10486000A1FD9DED0A0B41EC1B0B53EC192B51ECF8
:10487000100BFBF797FD41EC190B53EC1B2B51EC84
:10488000180BFBF78FFD53EC192BFBF785FD9FED04
:104890002C0B41EC190B53EC102B51EC180BFBF7C4
:1048A00081FD41EC100B2848844210DA53EC192B9F
:1048B00051EC100BFBF770FD53EC1A2BFBF76FFD5F
:1048C00041EC100B02B0BDEC088B04B010BD1F48CA
:1048D000A042BCBF9FED1E1B8DED001B06DBA4F5A7
:1048E00000100190002000909DED001B51EC100B7A
:1048F00053EC112BFBF750FD9DED000B41EC180B19
:1049000053EC102B51EC1A0BFBF746FD41EC1A0B44
:1049100053EC192B51EC180BFBF73EFD53EC1A2B03
:10492000FBF73DFD41EC100BCCE700000000000060
:10493000000000000000F03F9C0B000000000000A1
:10494000000000000000E03F3333D33F0000E93FA8
:10495000000000000000D23F70B504462DED028B30
:104960004D1E00EBC500B0EE408AF0EE608A90ED7F
:10497000000B35F0060017D053EC182B51EC100B40
:10498000FBF710FD41EC100B6D1E04EBC50090ED24
:10499000001B51EC100B53EC112BFBF75CFC41ECB2
:1049A000100B35F00600E7D1022D36D0042D1CD0B7
:1049B000062D1CBFBDEC028B70BD53EC182B51ECC7
:1049C000100BFBF7EFFC94ED0A1B53EC112BFBF7DC
:1049D00042FC53EC182BFBF7E5FC94ED081B53EC61
:1049E000112BFBF738FC41EC100B53EC182B51EC5E
:1049F000100BFBF7D7FC94ED061B53EC112BFBF7C8
:104A00002AFC53EC182BFBF7CDFC94ED040B53EC74
:104A1000102BFBF720FC41EC100B53EC182B51EC46
:104A2000100BFBF7BFFC94ED021B53EC112BFBF7B3
:104A300012FC53EC182BFBF7B5FC94ED001B53EC68
:104A4000112BFBF708FCBDEC028B41EC100B70BD89
:104A500031B504462DED040B2DED0A8BB0EE41BAB5
:104A6000F0EE61BA0B989DED0A0B20F00040B0F11A
:104A7000795F0DDA51EC100BFFF7FCF9042808BF41
:104A800000F09AF89DED0A0BBDEC0A8B05B030BD25
:104A900053EC102B51EC100BFBF784FC41EC180B82
:104AA0009DED0A0B53EC182B51EC100BFBF77AFC25
:104AB00041EC190B2C48B0EE480AF0EE680A0521CB
:104AC0007844FFF749FF9FED2ACBB0EE40AAF0EE05
:104AD00060AA9CB353EC1C2B51EC190BFBF762FC46
:104AE00041EC1C0B53EC1A2B51EC190BFBF75AFC45
:104AF0009FED210B41EC190B53EC102B51EC1B0BD0
:104B0000FBF750FC53EC192BFBF746FC53EC182B2E
:104B1000FBF748FC53EC1B2BFBF73EFC53EC1C2B28
:104B2000FBF73AFC9DED0A1B53EC112BFBF737FC0E
:104B3000BDEC0A8B05B041EC100B30BDFFE753EC28
:104B40001A2B51EC180BFBF72DFC53EC1C2BFBF72D
:104B500082FB53EC192BFBF725FC9DED0A1B53EC54
:104B6000112BFBF778FBE3E7240A000000000000AC
:104B7000495555555555C5BF000000000000E03FA0
:104B800010B553EC102B51EC100BFBF764FB41EC10
:104B9000100B10BD000000009FED050B10B553EC8D
:104BA000102B51EC100BFBF76FFC41EC100B10BD00
:104BB00000000000000000009FED050B10B553EC55
:104BC000102B51EC100BFBF7EDFB41EC100B10BD63
:104BD000000000000000001002E008C8121F08C119
:104BE000002AFAD170477047002001E001C1121F6E
:104BF000002AFBD17047000001490860704700009F
:104C0000EC0000202DE9FF4F8BB0884605460026BA
:104C100006E025280BD0DDE90D1290476D1C761CAF
:104C200028780028F5D10FB03046BDE8F08F002479
:104C3000A146A2460122AE4900E0044315F8013F17
:104C4000203B02FA03F00842F7D128782A2810D036
:104C50006FF02F022878A0F13001092915D809EB4F
:104C6000890102EB410144F0020400EB01096D1CD3
:104C7000F0E758F8041B5FEA010903D544F4005437
:104C8000C9F1000944F002046D1C28782E2817D1C0
:104C900015F8010F44F004042A280ED06FF02F02FB
:104CA0002878A0F1300109290AD80AEB8A0102EB21
:104CB000410100EB010A6D1CF2E758F804AB6D1CD2
:104CC00028786C280FD006DC4C2817D068280DD027
:104CD0006A2814D104E0742810D07A280FD10DE08E
:104CE00044F400140AE044F4801401E044F4401455
:104CF0006978814202D104F580146D1C6D1C2878FE
:104D0000692865D006DC00288DD0632827D0642868
:104D100006D15DE06E2808D073282AD0752877D098
:104D2000DDE90D129047761CE0E0C4F30250022842
:104D300009D003280DD0D8F8001004280DD00E603B
:104D400008F10408D2E0D8F80010F217C1E90062B7
:104D5000F6E7D8F800100E80F2E70E70F0E718F8CA
:104D6000041B8DF8001000208DF80100EB46012097
:104D700003E058F804BB4FF0FF3061074FF0000725
:104D800001D40AE07F1C57450DDA8742FADB1BF895
:104D900007100029F6D106E07F1C8742FCDB1BF8D8
:104DA00007100029F8D1DDE90D23A9EB07008146A2
:104DB000214600F0B1F83044C61904E0DDE90D12D7
:104DC0001BF8010B90477F1EF8D22146484688E029
:104DD00058F8040BC4F302514FF00A0B032900D119
:104DE00000B2042900D140B2002802DA40422D214D
:104DF00002E0210505D52B218DF82410012104E0C6
:104E000006E0E10710D02021F6E708AF089113E093
:104E100058F8040BC4F302514FF00A0B032900D1D8
:104E200080B2042900D1C0B20021EEE75946FBF759
:104E300043FC303107F8011D0028F7D1ADEB070026
:104E400000F1200B600702D524F4803401E04FF01C
:104E5000010ADA4502DDAAEB0B0000E000208246E1
:104E600000EB0B0108980144A9EB01000A90E00354
:104E700006D4DDE90D2321460A9800F04DF80644DA
:104E80004FF0000908E009A911F80900DDE90D1249
:104E9000904709F10109761C08998945F3DBE00385
:104EA0000CD5DDE90D2321460A9800F035F80644BB
:104EB00004E0DDE90D1230209047761CBAF10001C4
:104EC000AAF1010AF5DC05E0DDE90D1217F8010B86
:104ED0009047761CBBF10001ABF1010BF4DC0A98A2
:104EE0002146DDE90D2300F005F806446D1C97E628
:104EF000092801002DE9F041044600251E46174609
:104F0000880404D405E039462020B0476D1C641E97
:104F1000F9D52846BDE8F0812DE9F0410446002589
:104F20001E469046C80301D5302700E0202788049C
:104F300004D505E041463846B0476D1C641EF9D5DE
:104F40002846BDE8F0810A68531C0B60107070475A
:104F500082B0CDE9000121F0004001909DED000BF1
:104F600002B051EC100B7047FCF71AF9FEF784FC05
:104F7000FEF77CFAFEF7C0FAFEF7DEFAFEF700FB5A
:104F8000FEF762FBFEF794FBFEF7AEFBFEF768F957
:104F9000FEF77EF80A20FBF7DDFC234AA2F1B801F8
:104FA000A1F1B800FEF7BEF91F4AA2F1B801A1F1C4
:104FB000B800FEF7D1F8642301221C491C48FDF714
:104FC000D1FD00211B48FDF773F904211948FDF7B5
:104FD0006FF908211748FDF76BF90C211548FDF70B
:104FE00067F914484FF47A7102685163026891635B
:104FF0000268D163006801644800FBF7ABFC0F480E
:105000009FED0D0A80ED000A0D4880ED000A0E4864
:105010009FED0C0A80ED000A0C48FCF741FF00BF31
:10502000FEF7B0FDFCE70000C80200207800002079
:10503000CC0400204C04002000000000A000002050
:10504000B400002000001643C80000208C0400209B
:10505000F0B506462DED0C8B85B0032014460D46A9
:10506000642701238DF80C0003AA3C21A748009770
:10507000FBF7C2FF062301AA3C21A4480097FBF7D7
:10508000CBFEBDF80400BDF8061040BA49BA00B224
:105090000AB2BDF8081000EE100A49BA09B2B8EE1B
:1050A000C0AA00EE101AF8EEC0AA00EE102AF8EE20
:1050B000C08A95ED060B9FED969B51EC100B53ECBF
:1050C000192BFBF76FF941EC100BFFF7CDF8B0EEA1
:1050D00040BAF0EE60BA18EE900AFBF78DFA53EC86
:1050E0001B2BFBF75FF995ED060B41EC1B0B53EC0B
:1050F000192B51EC100BFBF755F941EC100BFFF796
:105100004FF8B0EE40CAF0EE60CA1AEE100AFBF794
:1051100073FA53EC1C2BFBF745F953EC1B2BFBF7F5
:105120009AF8FBF7ADFA95ED060B08EE100A53EC72
:10513000192B51EC100BFBF735F941EC100BFFF775
:105140002FF8B0EE40BAF0EE60BA96ED060B53ECD5
:10515000192B51EC100BFBF725F941EC100BFFF765
:1051600083F8B0EE40CAF0EE60CA18EE900AFBF782
:1051700043FA53EC1C2BFBF715F953EC1B2BFBF7F5
:1051800011F996ED060B41EC1B0B53EC192B51EC6E
:10519000100BFBF707F941EC100BFFF701F8B0EE2D
:1051A00040CAF0EE60CA1AEE900AFBF725FA53ECFB
:1051B0001C2BFBF7F7F895ED060B41EC1C0B53ECA1
:1051C000192B51EC100BFBF7EDF841EC100BFFF72E
:1051D0004BF8B0EE40DAF0EE60DA96ED060B53ECE9
:1051E000192B51EC100BFBF7DDF841EC100BFFF71E
:1051F0003BF8B0EE409AF0EE609A1AEE100AFBF718
:10520000FBF953EC192BFBF7CDF853EC1D2BFBF7F7
:10521000C9F853EC1C2BFBF71EF853EC1B2BFBF7C8
:10522000BBF8FBF72DFA00EE100A9FED3B9BB5EEA5
:10523000C08AF1EE10FA0FDDB5EEC00AF1EE10FAF9
:105240000ADBC0EE080A10EE900AFBF7D5F941EC34
:10525000100BFEF739FE11E0B5EEC08AF1EE10FA40
:1052600018D2C0EE080A10EE900AFBF7C5F941EC1F
:10527000100BFEF729FE9FED2A1B21E053EC192BA2
:1052800051EC100BFBF78EF8C4E9060105B0BDEC3C
:105290000C8BF0BDB5EEC08AF1EE10FA19DDB5EE5B
:1052A000C00AF1EE10FA14D8C0EE080A10EE900A07
:1052B000FBF7A2F941EC100BFEF706FE9FED1A1B5F
:1052C00051EC100B53EC112BFAF7C5FF41EC100B0E
:1052D000D4E7B5EEC08AF1EE10FA07D1B5EEC00AF8
:1052E000F1EE10FA02D29FED120B0BE0B5EEC08A80
:1052F000F1EE10FACAD1B5EEC00AF1EE10FAC5DD32
:105300009FED0D0B84ED060BC0E70000A00300200D
:10531000000000A069DE913F000000C0DCA54C4009
:10532000A7E8482EFF210940A7E8482EFF21194091
:10533000CDCCCCF403805640999999F702E07040A7
:105340000000000000000000010203040607080935
:1053500000000000010203044FBB610567ACDD3FA4
:10536000182D4454FB21E93F9BF681D20B73EF3F8C
:10537000182D4454FB21F93FE2652F227F2B7A3C04
:10538000075C143326A6813CBDCBF07A8807703CBD
:10539000075C143326A6913CC4EB98999999C9BF30
:1053A000711623FEC671BCBF6D9A74AFF2B0B3BF65
:1053B0009AFDDE522DDEADBF2F6C6A2C44B4A2BF25
:1053C0000D5555555555D53FFF8300922449C23F91
:1053D0006E204CC5CD45B73F513DD0A0660DB13FC5
:1053E000EB0D76244B7BA93F11DA22E33AAD903FD7
:1053F0004C5555555555A53F7751C1166CC156BFF3
:105400009015CB19A001FA3EAD529C804F7E92BE02
:10541000C4B1B4BD9EEE213ED43888BEE9FAA8BD21
:1054200000004054FB21F93F3163621A61B4D03D62
:105430000000601A61B4D03D7370032E8A19A33B3B
:105440000000002E8A19A33BC14920259A837B398D
:1054500000000000000000006E83F9A22915444EF0
:10546000D15727FCC0DD34F5999562DB4190433C70
:10547000AB6351FE61C5BBDE3A6E24B7E0D24D424C
:10548000EA2E49061C92D1091CEB1DFE3EA729B14C
:10549000F53582E88444BB2E26709CE9417E5FB4DA
:1054A00039D69139F43953838B5F849C3B28F9BDFD
:1054B000FF97F81F0F9805DE8B112FEF1F6D0A5A0B
:1054C000CF7E366DB709CB27663F464F2DEA5F9EEC
:1054D000C7BA27757BF1E5EBF739073DEA92528AA7
:1054E000B15FFB6B085D8D1FA6F810111111813F94
:1054F000D561C119A0012ABF7DFEB157E31DC73E8A
:10550000EB9C2B8AE6E55ABE7CD5CF5A3AD9E53DCD
:105510003055000800000020F0000000D84B0008C3
:1055200020560008F000002060080000E84B00084A
:10553000000000000000000000000000000000006B
:10554000000000000000000000000000CDCCAC3FD7
:1055500000000C428FC2753CCDCCAC3F00000C4229
:105560008FC2753C000040400000000000000000B9
:1055700000000000000000009A9999999999993FBC
:105580009A9999999999A93F00000000000000009C
:10559000000000000000000000000000000000000B
:1055A00000000000000000000000000000000000FB
:1055B00000000000000000000000000000000000EB
:1055C00000000000000000000000000000000000DB
:1055D00000000000000000000000000000000000CB
:1055E00000000000000000000000000000000000BB
:1055F00000000000000000000000000000000000AB
:105600000000000000000000000000000100000099
:1056100010000000000000000024F4000000000062
:040000050800019955
:00000001FF
