:020000040800F2
:10000000B8040020010100087713000879120008E5
:10001000751300088B030008E315000800000000BA
:100020000000000000000000000000007B1300083A
:100030008D03000800000000791300087D130008FC
:100040001B0100081B0100081B0100081B01000820
:100050001B0100081B0100088F0300081B0100089A
:100060001B0100081B0100081B0100081B01000800
:100070001B0100081B0100081B0100081B010008F0
:100080001B0100081B0100081B0100081B010008E0
:100090001B0100081B0100081B0100081B010008D0
:1000A0001B0100081B0100081B0100081B010008C0
:1000B0001B010008D11300081B0100081B010008E8
:1000C0001B0100081B0100081B0100081B010008A0
:1000D0001B0100081B0100081B0100081B01000890
:1000E0001B0100081B0100081B010008DFF80CD0F1
:1000F00000F02AF90048004725160008B80400203F
:100100000648804706480047FEE7FEE7FEE7FEE7B1
:10011000FEE7FEE7FEE7FEE7FEE7FEE7CF13000897
:10012000ED000008202A04DB203A21FA02F0002129
:10013000704721FA02F3D040C2F1200291400843F7
:1001400019467047D2B201E000F8012B491EFBD2DC
:1001500070470022F6E710B513460A4604461946D2
:10016000FFF7F0FF204610BD2DE9F04D81EA0304B2
:1001700004F0004B21F0004514464FF0000A23F034
:10018000004150EA050220D054EA01021DD0C5F317
:100190000A570246C5F31303C1F31300C1F30A560D
:1001A00040F4801543F48013A7EB0608101BD646D5
:1001B00008F2FD3873EB050002D308F1010801E0F5
:1001C00092185B41B8F1000F03DA00200146BDE848
:1001D000F08D00204FF48011064684460EE0171B78
:1001E00073EB050705D3121B63EB050306434CEACB
:1001F000010C49084FEA300092185B4150EA0107B0
:10020000EDD152EA030012D082EA040083EA05012C
:10021000084305D0101BAB4106D20122002306E0A3
:1002200000224FF0004302E06FF0010253101AEB7E
:1002300006004CEB085110EB0A0041EB0B01BDE846
:10024000F04D00F024B870B521F0004303430CD00A
:10025000C1F30A550024D5EB040564EB0403D6175B
:10026000AD1AB34102DB0020014670BD201841EBFE
:10027000025170BD0EB540F2334102910021CDE92B
:1002800000110A460B4600F011F803B000BD10B58E
:10029000141E73F1000408DA401C41F100019218A9
:1002A0005B411A4301D120F0010010BD2DE9F04D52
:1002B00092469B4611B1B1FA81F202E0B0FA80F2A7
:1002C0002032904600F052F804460F4640EA0A00F9
:1002D00041EA0B0153465A46084313D0114653EAEC
:1002E000010019D0C8F140025046FFF71BFF054638
:1002F0000E4650465946424600F038F8084305D0AD
:10030000012004E020463946BDE8F08D0020054379
:1003100046EAE0762C4337430A986305E40AA0EBEB
:1003200008000022FD0A44EA47540A3002D50020A2
:100330000146E9E7010510196941DDE908450019A1
:100340006941BDE8F04DA2E7064C074D06E0E068C4
:1003500040F0010394E8070098471034AC42F6D30C
:10036000FFF7C8FEE016000800170008202A04DB8B
:10037000203A00FA02F1002070479140C2F12003B8
:1003800020FA03F3194390407047FEE770470120BD
:1003900000F01CB870B5044600F014F90546601C66
:1003A00002D004480078044400F00CF9401BA0423D
:1003B000FAD370BD18000020012803D1024801685B
:1003C000491C01607047000000000020044910B57E
:1003D0000A68024202D00860FFF7EEFF10BD00007D
:1003E000140401402DE9F84FDFF8B891002409F119
:1003F000040A0AF1040B23460F270BF1040EC9E08F
:100400000125A5402A40AA427DD1674ED1F804C0FB
:10041000ACEB0608B44532D014DCBCF1030F3AD083
:1004200009DCBCF1000F2AD0BCF1010F1CD0BCF1DB
:10043000020F31D11DE0BCF1110F17D0BCF1120F2A
:100440002AD119E0B8F5881F19D006DCB8F5803F2D
:1004500015D0B8F5801F1FD111E0B8F5001F0ED0E0
:10046000B8F5041F18D10AE0CB6815E0CB681B1D56
:1004700012E0CB6808330FE0CB680C330CE08B68DC
:100480002BB1012B4FF0080303D0456104E0042396
:1004900002E0056100E00023FF2A01D8064601E0E2
:1004A00000F104064FEA840501D9A5F12005D6F82C
:1004B000008007FA05FC28EA0C0803FA05F548EA6B
:1004C0000508C6F800804D68ED0062D5374DAE696D
:1004D00046F00106AE61AD6924F0030605F00105A2
:1004E0000095334D06EB050CDCF80850A607360FD7
:1004F00007FA06F825EA0805DFF8B880404503D179
:100500004FF0000817E044E0DFF8AC80404502D12E
:100510004FF001080FE0DFF8A480404502D14FF012
:10052000020808E0DFF89880404502D14FF0030848
:1005300001E04FF0040808FA06F848EA0508CCF88C
:1005400008804D68D9F80060ED034D4601D516438B
:1005500000E096432E604D68DAF80060AD03554622
:1005600001D5164300E096432E604D68DBF800602D
:10057000ED025D4601D5164300E096432E604D68BE
:10058000DEF80060AD02754601D5164300E09643E3
:100590002E60641C0D682A46E5407FF431AFBDE84B
:1005A000F88F00000004014000001110001002400C
:1005B0000000014000080140000C01400010014013
:1005C00000140140014880687047000018000020B6
:1005D0000248816802781144816070471800002049
:1005E000074810B5016841F010010160032000F0D8
:1005F00075F8002000F006F800F024F8002010BD87
:100600000020024070B50D4D04464FF47A712878F1
:10061000B1FBF0F00A490968B1FBF0F000F0CCFA48
:1006200048B9102C07D200222146501E00F036F89F
:1006300000206C6070BD012070BD0000180000201B
:10064000240000200C4808B5816941F00101816156
:10065000816901F001010091C16941F08051C161DE
:10066000C06900F0805000900448416821F0E061CA
:1006700041F00071416008BD0010024000000140DF
:10068000002809DB00F01F02012191404009800091
:1006900000F1E020C0F8001170470000F0B40E4BEC
:1006A0001B680C46C3F30223C3F10705042D00D9D0
:1006B0000425191D072901D2002300E0DB1E0126B5
:1006C00006FA05F1491E214099409E40761E1640CB
:1006D0003143F0BC00F086BF0CED00E0064900F0AD
:1006E000070208684FF6FF03184040EA0220034A59
:1006F00010430860704700000CED00E00000FA05B0
:100700002DE9F0470F46050061D0434E306800F0F8
:100710000700B84209D2306820F007003843306043
:10072000306800F00700B84251D128683B4C81077F
:1007300012D5400703D5606840F4E0606060287817
:10074000000703D5606840F4605060606068A96885
:1007500020F0F000084360602878C00728D068685F
:10076000012810D02168022810D0890700292EDA2C
:10077000616821F0030101436160FFF723FF8046B8
:1007800041F288390DE021688903EFE78901EDE73F
:10079000FFF718FFA0EB0801494502D90320BDE887
:1007A000F0876068696800F00C00B0EB810FEFD152
:1007B000306800F00700B8420BD9306820F007001D
:1007C00038433060306800F00700B84201D00120A3
:1007D000E5E72878400705D56068E96820F4E0601F
:1007E000084360602878000706D56068296920F40E
:1007F000605040EAC100606000F018F86168084A83
:10080000C1F30311515CC8400649086006480068FE
:10081000FFF7F8FE0020C2E700200240001002406F
:10082000D0160008240000201C00002012A185B072
:100830000FC98DE80F0014A0144A00680490516895
:10084000134801F00C03042B10D0082B0ED1C1F378
:100850008343C9031DF803000AD5516804AAC1F3F4
:100860004041515C0A4A5043B0FBF1F005B070477B
:1008700008494843FAE7000002030405060708098F
:100880000A0B0C0D0E0F10100102000000100240A8
:1008900000127A0000093D002DE9F84F040070D0E5
:1008A0002078C04DC00749D06868C0F38100012896
:1008B00007D06868C0F38100022809D16868C003C6
:1008C00006D52868800339D560680028E7D035E070
:1008D0006068B0F5803F0BD010B1B0F5A02F11D0FB
:1008E000286820F480302860286820F4802002E006
:1008F000286840F480302860606890B1FFF762FE9D
:1009000006460AE0286840F480202860F0E700BF2F
:10091000FFF758FE801B642873D828688003F7D53A
:100920000CE0FFF74FFE064605E000BFFFF74AFE6A
:10093000801B6428F0D828688003F7D420789A4E6A
:1009400080074FF001094FF0000839D5686810F0B2
:100950000C0F07D06868C0F38100022809D16868CD
:10096000C00306D42868800714D52069012808D15F
:1009700010E02069B0B1C6F80090FFF723FE0746EB
:1009800005E00AE1FFF71EFEC01B0228C4D8286854
:100990008007F7D52868616920F0F80040EAC100B7
:1009A00028600DE0C6F80080FFF70CFE074604E063
:1009B000FFF708FEC01B022823D828688007F7D459
:1009C000207800072CD57948A169D9B1C0F80090EA
:1009D000FFF7F8FD074604E0FFF7F4FDC01B02280F
:1009E0000FD8686A8007F7D571484FF4FA5100684C
:1009F000B0FBF1F0009000BF0098411E0091FAD2C8
:100A00000EE080E0C0F80080FFF7DCFD074604E060
:100A1000FFF7D8FDC01B022875D8686A8007F7D495
:100A20002078400760D5E8690027C00008D4E8694D
:100A300040F08050E861E869012700F080500090A4
:100A40005C480168C90513D40168834641F480718C
:100A50000160FFF7B7FD824606E000BFFFF7B2FD79
:100A6000A0EB0A0064284ED8DBF80000C005F5D5DD
:100A7000E06801280AD008B1052813D0286A20F0C0
:100A800001002862286A20F0040002E0286A40F091
:100A900001002862E06841F2883B98B1FFF792FDBF
:100AA00082460BE0286A40F004002862EEE700BFAF
:100AB000FFF788FDA0EB0A0159455AD8286A80073C
:100AC000F6D50CE0FFF77EFD824605E0FFF77AFDE4
:100AD000A0EB0A0159454CD8286A8007F6D41FB10B
:100AE000E86920F08050E861E06988B36968C1F383
:100AF0008101022944D00228C6F8608004D0FFF7A3
:100B000061FD044638E034E0FFF75CFD074604E091
:100B1000FFF758FDC01B02282BD828688001F7D4A6
:100B2000206AB0F5803F05D16868A16820F40030E4
:100B300008436860D4E908010843696821F4741126
:100B400008436860C6F86090FFF73CFD044606E085
:100B500025E000BFFFF736FD001B022809D82868F2
:100B60008001F7D51BE000BFFFF72CFD001B02281A
:100B700002D90320BDE8F88F28688001F4D40EE084
:100B80000128F7D06868226A00F48031914204D1CC
:100B9000616A00F47010884201D00120EAE7002069
:100BA000E8E7000000100240000042428004424298
:100BB000240000200070004010B5401EB0F1807F7E
:100BC00001D3012010BD4FF0E02460610F216017B8
:100BD00000F008FD0020A06107202061002010BD6A
:100BE0007047704770B590F83C20012A26D0012448
:100BF00080F83C40022280F83D2003685A689D68D6
:100C000022F070060A6832435A600D4B02689A421D
:100C100008D0B2F1804F05D00A4B9A4202D00A4B5D
:100C20009A4204D1496825F080031943916080F805
:100C30003D40002180F83C10084670BD022070BD88
:100C4000002C0140000400400008004010B50400E2
:100C500003D094F83D0010B107E0012010BD002042
:100C600084F83C00204600F01FF8022084F83D0084
:100C7000211D206800F0B2FB012084F8460084F8B2
:100C80003E0084F83F0084F8400084F8410084F876
:100C9000420084F8430084F8440084F8450084F856
:100CA0003D00002010BD000000B585B0002100917E
:100CB000019102910391184A01681848914217D195
:100CC000816941F400618161816901F400610491ED
:100CD000816941F0040181618069694600F0040086
:100CE0000490901500900E48FFF77CFB05B000BD06
:100CF0000C4A9142FAD1C16941F00201C161C06957
:100D0000002200F00200049011461D20FFF7C6FCEF
:100D10001D20FFF7B5FCE9E7002C01400010024060
:100D2000000801400004004090F83D10012901D066
:100D300001207047022180F83D1000680B4988426D
:100D400008D0B0F1804F05D00949884202D0094946
:100D5000884204D1816801F00701062903D00168A7
:100D600041F001010160002070470000002C0140AB
:100D7000000400400008004070B5044690F83C00B4
:100D8000012817D0012584F83C50022084F83D004A
:100D90002068826822F0770222F47F42826008682D
:100DA000502830D00DDC20284DD005DC98B3102819
:100DB0003BD148E0022070BD302844D0402834D1D7
:100DC00039E0602828D0702806D0B0F5805F2CD09C
:100DD000B0F5005F29D10AE0CB68D1E90121206894
:100DE00000F03FFB2068816841F0770109E0CB68A3
:100DF000D1E90121206800F034FB2068816841F4CA
:100E00008041816011E0CA684968206800F07EFB7B
:100E10005021206807E016E0CA684968206800F0A1
:100E2000B3FB6021206800F026FB84F83D500020D1
:100E300084F83C0070BDCA684968206800F066FB11
:100E400040212068EFE7226801461046EBE7704733
:100E50002DE9F041054690F83C000C46012836D0BB
:100E6000012085F83C008AB3042A42D02868082A69
:100E700051D0D4E90023E168066A26F48056066260
:100E8000C669076A26F4407646EA03234FF6FF76E2
:100E900006EA013123F4704319434FF4005627F456
:100EA000005306EA02321A43C16102622868C1692E
:100EB00021F44061C1612868C169A26841EA022148
:100EC000C161002085F83C00BDE8F08101E002200E
:100ED000FAE7D4E90012E368286800F029FB2868E3
:100EE000816921F00C01816128688169A268114340
:100EF0000FE0D4E90012E368286800F057FB286887
:100F0000816921F44061816128688169A26841EAB0
:100F100002218161D5E7D4E90027267B016A21F40B
:100F200080710162C169036A21F00301394321F034
:100F3000F00731074FF4007647EA116123F400739C
:100F400006EA02221A43C16102622868C16921F0DF
:100F50000C01C1612868C169A2681143B0E710B5EE
:100F6000040003D094F83D0010B107E0012010BD4B
:100F7000002084F83C00204600F01EF8022084F88F
:100F80003D00211D206800F029FA012084F8460068
:100F900084F83E0084F83F0084F8400084F8410063
:100FA00084F8420084F8430084F8440084F8450043
:100FB00084F83D00002010BD704770B504460068FD
:100FC00001694FF00005C943890715D4C168C943B9
:100FD000890711D4E91E016101202077206880690A
:100FE0008007204602D0FFF732FF04E000F098F8B7
:100FF000204600F096F8257720680169C943490723
:1010000017D4C168C943490713D46FF004010161C3
:10101000022020772068806910F4407F204602D0AB
:10102000FFF715FF04E000F07BF8204600F079F8A8
:10103000257720680169C943090716D4C168C943E7
:10104000090712D46FF0080101610420207720689D
:10105000C0698007204602D0FFF7F9FE04E000F0E7
:101060005FF8204600F05DF8257720680169C943E4
:10107000C90617D4C168C943C90613D46FF010015B
:101080000161082020772068C06910F4407F204665
:1010900002D0FFF7DCFE04E000F042F8204600F04A
:1010A00040F8257720680169C943C90708D1C1689C
:1010B000C943C90704D1891E0161204600F080F8A8
:1010C00020680169C943090609D4C168C9430906F2
:1010D00005D46FF0800101612046FFF781FD206893
:1010E0000169C943490609D4C168C943490605D401
:1010F0006FF040010161204600F0BDF820680169F1
:10110000C94389060BD4C168C943890607D46FF067
:10111000200101612046BDE87040FFF762BD70BD4F
:101120007047704710B50446022249B104290ED019
:10113000082913D094F84100012816D0012010BDD1
:1011400094F83E000128F9D184F83E200FE094F88D
:101150003F000128F2D184F83F2008E094F84000D5
:101160000128EBD184F8402001E084F841200122DD
:10117000206800F069F90F492068884203D1426C69
:1011800042F4004242642068884208D0B0F1804FA7
:1011900005D00949884202D00849884204D18168B3
:1011A00001F00701062903D0016841F00101016047
:1011B000002010BD002C0140000400400008004049
:1011C00070B500681249884221D1124C0025204692
:1011D000A16840680A2905D20F4A12685063491C69
:1011E000A16002E0401CC4E90105A068401CA060A9
:1011F0002068401E4008FFF73DF80122FFF723F862
:101200000022064BFEF7B0FF2560C4E9040170BD63
:1012100000040040000000202800002000004E4094
:1012200070B5044690F83C00012812D0012584F8DE
:101230003C50022084F83D00204600F024F90100D3
:101240004FF0000007D084F83D5084F83C000120A6
:1012500070BD022070BD2168CA6822F04002CA60D9
:101260002168CA6822F48042CA6084F83D5084F83C
:101270003C00002070BD7047FEE7000010B590B044
:10128000002409940A940B94142104A80C94FEF7EA
:1012900060FF224803940094019402940D941E4927
:1012A0000E9401604721C0E9011444F61F61C0E9B2
:1012B000031444618461FFF7C9FC4FF48050099026
:1012C00009A91648FFF758FD1448FFF748FE042007
:1012D00004905020CDE90504079404A90F48089410
:1012E000FFF79EFF0120CDE90040029400226946ED
:1012F0000A480394FFF7ACFD0220009001900422FD
:1013000069460648FFF7A4FD0D940DA903480E9405
:10131000FFF768FC10B010BD002C01402800002031
:1013200010B586B0002412480094019402940394EE
:1013300004940E490594016044F24F61C0E9011420
:1013400040F2E731C0E903148461FFF77FFC4FF4FA
:101350008050009069460648FFF70EFD049404A9EA
:1013600003480594FFF73EFC06B010BD00040040A2
:1013700070000020FEE7704770477047FFF728B9FC
:1013800030B58FB028216846FEF7E3FE14210AA885
:10139000FEF7DFFE01210804CDE9001000240294CD
:1013A00002250491CDE907504FF4E01009906846FA
:1013B000FFF772FA0F20CDE90A056802CDE90C406B
:1013C00002210AA80E94FFF79BF90FB030BD7047B9
:1013D0000148FFF7F2BD000070000020F0B5026880
:1013E000164B174C174D4FF08047984205D0B84226
:1013F00003D0A04201D0A84203D122F070064A686F
:101400003243984205D0B84203D0A04201D0A8424E
:1014100003D122F44074CA6822434C6922F080024E
:10142000224302608A68C2620A688262984201D1DD
:101430000969016301214161F0BD0000002C0140F8
:10144000000400400008004010B501F01F03012116
:10145000046A99408C430462016A9A401143016214
:1014600010BD10B5846842EA032224F47F440A4385
:101470002243826010BD826822F070020A4342F06B
:1014800007018160704710B503689A6822F0700404
:101490004A68224322F007040A6822439A604A6895
:1014A00012F00F0F30D11211082A2DD2DFE802F00E
:1014B0002C2C2C2C0B2127040B69D1E9022100686C
:1014C000FFF7CFFF20E00A68052A10D00268136AF0
:1014D000146A24F00104146202689469096924F012
:1014E000F00444EA01119161006803620CE00120FC
:1014F00010BD0A698968006800F008F804E00A690C
:101500008968006800F040F8002010BD10B5036A3B
:10151000046A24F001040462846924F0F00444EABB
:10152000021423F00A020A438461026210BD000023
:1015300070B5046A24F0010404628469056A0F4EE0
:10154000B04208D0B0F1804F05D00D4EB04202D06D
:101550000C4EB04203D124F00304144301E044F0E4
:1015600001041A0724F0F00444EA126225F00A0389
:1015700001F00A0119438261016270BD002C014033
:10158000000400400008004010B5036A23F0100377
:1015900003628369046A23F4704343EA023224F04D
:1015A000A00343EA01118261016210BD30B5046AF3
:1015B00024F0100404628469056A24F4407444EA47
:1015C000022222F470444FF6FF7202EA03322243F1
:1015D000A02425F0A00304EA0111194382610162ED
:1015E00030BDFEE70907090E002804DB00F1E0200A
:1015F00080F80014704700F00F0000F1E02080F840
:10160000141D704702E008C8121F08C1002AFAD151
:1016100070477047002001E001C1121F002AFBD172
:101620007047000086B0FEF7DBFFFFF7A9FE2348F6
:1016300000240394816941F020018161816901F0F6
:1016400020010491816941F00401816180691C4994
:1016500000F0040004900120CDE9000102906946E9
:101660001848FEF7BFFE002211460620FFF716F8C5
:101670000620FFF705F8FFF701FEFFF751FE1248BD
:10168000FFF752FB10484838FFF74EFB0E48002189
:101690004838FFF747FD0C4D40F2CF70483D2968B0
:1016A0004863401CFEF776FE296840F2E730486345
:1016B000411C0648C0E90114FEE70000001002408A
:1016C00000002110000801407000002000000020F0
:1016D00000000000000000000102030406070809E2
:1016E0000017000800000020280000000416000871
:1016F0002817000828000020900400001416000895
:1017000000000000E80300000000000000000000EE
:1017100000000000000000000100000010000000B8
:08172000000000000024F400A9
:04000005080000ED02
:00000001FF
